{
	"Stackup.sol": {
		"StackUp": {
			"abi": [
				{
					"inputs": [],
					"stateMutability": "nonpayable",
					"type": "constructor"
				},
				{
					"inputs": [],
					"name": "admin",
					"outputs": [
						{
							"internalType": "address",
							"name": "",
							"type": "address"
						}
					],
					"stateMutability": "view",
					"type": "function"
				},
				{
					"inputs": [
						{
							"internalType": "uint256",
							"name": "",
							"type": "uint256"
						}
					],
					"name": "campaigns",
					"outputs": [
						{
							"internalType": "uint256",
							"name": "campaignId",
							"type": "uint256"
						},
						{
							"internalType": "uint256",
							"name": "nextQuestId",
							"type": "uint256"
						}
					],
					"stateMutability": "view",
					"type": "function"
				},
				{
					"inputs": [
						{
							"internalType": "uint256",
							"name": "campaignId",
							"type": "uint256"
						},
						{
							"internalType": "string",
							"name": "title_",
							"type": "string"
						},
						{
							"internalType": "uint8",
							"name": "reward_",
							"type": "uint8"
						},
						{
							"internalType": "uint256",
							"name": "numberOfRewards_",
							"type": "uint256"
						},
						{
							"internalType": "uint256",
							"name": "startTime_",
							"type": "uint256"
						},
						{
							"internalType": "uint256",
							"name": "endTime_",
							"type": "uint256"
						}
					],
					"name": "createQuest",
					"outputs": [],
					"stateMutability": "nonpayable",
					"type": "function"
				},
				{
					"inputs": [
						{
							"internalType": "uint256",
							"name": "campaignId",
							"type": "uint256"
						},
						{
							"internalType": "uint256",
							"name": "questId",
							"type": "uint256"
						}
					],
					"name": "joinQuest",
					"outputs": [],
					"stateMutability": "nonpayable",
					"type": "function"
				},
				{
					"inputs": [],
					"name": "nextCampaignId",
					"outputs": [
						{
							"internalType": "uint256",
							"name": "",
							"type": "uint256"
						}
					],
					"stateMutability": "view",
					"type": "function"
				},
				{
					"inputs": [
						{
							"internalType": "address",
							"name": "",
							"type": "address"
						},
						{
							"internalType": "uint256",
							"name": "",
							"type": "uint256"
						}
					],
					"name": "playerQuestStatuses",
					"outputs": [
						{
							"internalType": "enum StackUp.PlayerQuestStatus",
							"name": "",
							"type": "uint8"
						}
					],
					"stateMutability": "view",
					"type": "function"
				},
				{
					"inputs": [
						{
							"internalType": "uint256",
							"name": "campaignId",
							"type": "uint256"
						},
						{
							"internalType": "uint256",
							"name": "questId",
							"type": "uint256"
						}
					],
					"name": "submitQuest",
					"outputs": [],
					"stateMutability": "nonpayable",
					"type": "function"
				}
			],
			"devdoc": {
				"kind": "dev",
				"methods": {},
				"version": 1
			},
			"evm": {
				"assembly": "    /* \"Stackup.sol\":57:3221  contract StackUp {... */\n  mstore(0x40, 0x80)\n    /* \"Stackup.sol\":723:772  constructor() {... */\n  callvalue\n  dup1\n  iszero\n  tag_1\n  jumpi\n  0x00\n  dup1\n  revert\ntag_1:\n  pop\n    /* \"Stackup.sol\":755:765  msg.sender */\n  caller\n    /* \"Stackup.sol\":747:752  admin */\n  0x00\n  dup1\n    /* \"Stackup.sol\":747:765  admin = msg.sender */\n  0x0100\n  exp\n  dup2\n  sload\n  dup2\n  0xffffffffffffffffffffffffffffffffffffffff\n  mul\n  not\n  and\n  swap1\n  dup4\n  0xffffffffffffffffffffffffffffffffffffffff\n  and\n  mul\n  or\n  swap1\n  sstore\n  pop\n    /* \"Stackup.sol\":57:3221  contract StackUp {... */\n  dataSize(sub_0)\n  dup1\n  dataOffset(sub_0)\n  0x00\n  codecopy\n  0x00\n  return\nstop\n\nsub_0: assembly {\n        /* \"Stackup.sol\":57:3221  contract StackUp {... */\n      mstore(0x40, 0x80)\n      callvalue\n      dup1\n      iszero\n      tag_1\n      jumpi\n      0x00\n      dup1\n      revert\n    tag_1:\n      pop\n      jumpi(tag_2, lt(calldatasize, 0x04))\n      shr(0xe0, calldataload(0x00))\n      dup1\n      0x8c58689b\n      gt\n      tag_10\n      jumpi\n      dup1\n      0x8c58689b\n      eq\n      tag_6\n      jumpi\n      dup1\n      0x99f7358c\n      eq\n      tag_7\n      jumpi\n      dup1\n      0xd5144817\n      eq\n      tag_8\n      jumpi\n      dup1\n      0xf851a440\n      eq\n      tag_9\n      jumpi\n      jump(tag_2)\n    tag_10:\n      dup1\n      0x017bbaec\n      eq\n      tag_3\n      jumpi\n      dup1\n      0x141961bc\n      eq\n      tag_4\n      jumpi\n      dup1\n      0x7903a756\n      eq\n      tag_5\n      jumpi\n    tag_2:\n      0x00\n      dup1\n      revert\n        /* \"Stackup.sol\":2410:2826  function submitQuest(uint256 campaignId, uint256 questId)... */\n    tag_3:\n      tag_11\n      0x04\n      dup1\n      calldatasize\n      sub\n      dup2\n      add\n      swap1\n      tag_12\n      swap2\n      swap1\n      tag_13\n      jump\t// in\n    tag_12:\n      tag_14\n      jump\t// in\n    tag_11:\n      stop\n        /* \"Stackup.sol\":537:582  mapping(uint256 => Campaign) public campaigns */\n    tag_4:\n      tag_15\n      0x04\n      dup1\n      calldatasize\n      sub\n      dup2\n      add\n      swap1\n      tag_16\n      swap2\n      swap1\n      tag_17\n      jump\t// in\n    tag_16:\n      tag_18\n      jump\t// in\n    tag_15:\n      mload(0x40)\n      tag_19\n      swap3\n      swap2\n      swap1\n      tag_20\n      jump\t// in\n    tag_19:\n      mload(0x40)\n      dup1\n      swap2\n      sub\n      swap1\n      return\n        /* \"Stackup.sol\":588:617  uint256 public nextCampaignId */\n    tag_5:\n      tag_21\n      tag_22\n      jump\t// in\n    tag_21:\n      mload(0x40)\n      tag_23\n      swap2\n      swap1\n      tag_24\n      jump\t// in\n    tag_23:\n      mload(0x40)\n      dup1\n      swap2\n      sub\n      swap1\n      return\n        /* \"Stackup.sol\":778:1632  function createQuest(... */\n    tag_6:\n      tag_25\n      0x04\n      dup1\n      calldatasize\n      sub\n      dup2\n      add\n      swap1\n      tag_26\n      swap2\n      swap1\n      tag_27\n      jump\t// in\n    tag_26:\n      tag_28\n      jump\t// in\n    tag_25:\n      stop\n        /* \"Stackup.sol\":624:716  mapping(address => mapping(uint256 => PlayerQuestStatus))... */\n    tag_7:\n      tag_29\n      0x04\n      dup1\n      calldatasize\n      sub\n      dup2\n      add\n      swap1\n      tag_30\n      swap2\n      swap1\n      tag_31\n      jump\t// in\n    tag_30:\n      tag_32\n      jump\t// in\n    tag_29:\n      mload(0x40)\n      tag_33\n      swap2\n      swap1\n      tag_34\n      jump\t// in\n    tag_33:\n      mload(0x40)\n      dup1\n      swap2\n      sub\n      swap1\n      return\n        /* \"Stackup.sol\":1638:2404  function joinQuest(uint256 campaignId, uint256 questId)... */\n    tag_8:\n      tag_35\n      0x04\n      dup1\n      calldatasize\n      sub\n      dup2\n      add\n      swap1\n      tag_36\n      swap2\n      swap1\n      tag_13\n      jump\t// in\n    tag_36:\n      tag_37\n      jump\t// in\n    tag_35:\n      stop\n        /* \"Stackup.sol\":511:531  address public admin */\n    tag_9:\n      tag_38\n      tag_39\n      jump\t// in\n    tag_38:\n      mload(0x40)\n      tag_40\n      swap2\n      swap1\n      tag_41\n      jump\t// in\n    tag_40:\n      mload(0x40)\n      dup1\n      swap2\n      sub\n      swap1\n      return\n        /* \"Stackup.sol\":2410:2826  function submitQuest(uint256 campaignId, uint256 questId)... */\n    tag_14:\n        /* \"Stackup.sol\":2508:2518  campaignId */\n      dup2\n        /* \"Stackup.sol\":2943:2944  0 */\n      0x00\n        /* \"Stackup.sol\":2907:2916  campaigns */\n      0x01\n        /* \"Stackup.sol\":2907:2928  campaigns[campaignId] */\n      0x00\n        /* \"Stackup.sol\":2917:2927  campaignId */\n      dup4\n        /* \"Stackup.sol\":2907:2928  campaigns[campaignId] */\n      dup2\n      mstore\n      0x20\n      add\n      swap1\n      dup2\n      mstore\n      0x20\n      add\n      0x00\n      keccak256\n        /* \"Stackup.sol\":2907:2940  campaigns[campaignId].nextQuestId */\n      0x02\n      add\n      sload\n        /* \"Stackup.sol\":2907:2944  campaigns[campaignId].nextQuestId > 0 */\n      gt\n        /* \"Stackup.sol\":2886:2993  require(... */\n      tag_43\n      jumpi\n      mload(0x40)\n      0x08c379a000000000000000000000000000000000000000000000000000000000\n      dup2\n      mstore\n      0x04\n      add\n      tag_44\n      swap1\n      tag_45\n      jump\t// in\n    tag_44:\n      mload(0x40)\n      dup1\n      swap2\n      sub\n      swap1\n      revert\n    tag_43:\n        /* \"Stackup.sol\":2540:2550  campaignId */\n      dup3\n        /* \"Stackup.sol\":2552:2559  questId */\n      dup3\n        /* \"Stackup.sol\":3154:3155  0 */\n      0x00\n        /* \"Stackup.sol\":3106:3115  campaigns */\n      0x01\n        /* \"Stackup.sol\":3106:3127  campaigns[campaignId] */\n      0x00\n        /* \"Stackup.sol\":3116:3126  campaignId */\n      dup5\n        /* \"Stackup.sol\":3106:3127  campaigns[campaignId] */\n      dup2\n      mstore\n      0x20\n      add\n      swap1\n      dup2\n      mstore\n      0x20\n      add\n      0x00\n      keccak256\n        /* \"Stackup.sol\":3106:3134  campaigns[campaignId].quests */\n      0x01\n      add\n        /* \"Stackup.sol\":3106:3143  campaigns[campaignId].quests[questId] */\n      0x00\n        /* \"Stackup.sol\":3135:3142  questId */\n      dup4\n        /* \"Stackup.sol\":3106:3143  campaigns[campaignId].quests[questId] */\n      dup2\n      mstore\n      0x20\n      add\n      swap1\n      dup2\n      mstore\n      0x20\n      add\n      0x00\n      keccak256\n        /* \"Stackup.sol\":3106:3150  campaigns[campaignId].quests[questId].reward */\n      0x03\n      add\n      0x00\n      swap1\n      sload\n      swap1\n      0x0100\n      exp\n      swap1\n      div\n      0xff\n      and\n        /* \"Stackup.sol\":3106:3155  campaigns[campaignId].quests[questId].reward != 0 */\n      0xff\n      and\n      sub\n        /* \"Stackup.sol\":3085:3201  require(... */\n      tag_47\n      jumpi\n      mload(0x40)\n      0x08c379a000000000000000000000000000000000000000000000000000000000\n      dup2\n      mstore\n      0x04\n      add\n      tag_48\n      swap1\n      tag_49\n      jump\t// in\n    tag_48:\n      mload(0x40)\n      dup1\n      swap2\n      sub\n      swap1\n      revert\n    tag_47:\n        /* \"Stackup.sol\":2656:2680  PlayerQuestStatus.JOINED */\n      0x01\n        /* \"Stackup.sol\":2596:2680  playerQuestStatuses[msg.sender][questId] ==... */\n      0x02\n      dup2\n      gt\n      iszero\n      tag_51\n      jumpi\n      tag_52\n      tag_53\n      jump\t// in\n    tag_52:\n    tag_51:\n        /* \"Stackup.sol\":2596:2615  playerQuestStatuses */\n      0x03\n        /* \"Stackup.sol\":2596:2627  playerQuestStatuses[msg.sender] */\n      0x00\n        /* \"Stackup.sol\":2616:2626  msg.sender */\n      caller\n        /* \"Stackup.sol\":2596:2627  playerQuestStatuses[msg.sender] */\n      0xffffffffffffffffffffffffffffffffffffffff\n      and\n      0xffffffffffffffffffffffffffffffffffffffff\n      and\n      dup2\n      mstore\n      0x20\n      add\n      swap1\n      dup2\n      mstore\n      0x20\n      add\n      0x00\n      keccak256\n        /* \"Stackup.sol\":2596:2636  playerQuestStatuses[msg.sender][questId] */\n      0x00\n        /* \"Stackup.sol\":2628:2635  questId */\n      dup7\n        /* \"Stackup.sol\":2596:2636  playerQuestStatuses[msg.sender][questId] */\n      dup2\n      mstore\n      0x20\n      add\n      swap1\n      dup2\n      mstore\n      0x20\n      add\n      0x00\n      keccak256\n      0x00\n      swap1\n      sload\n      swap1\n      0x0100\n      exp\n      swap1\n      div\n      0xff\n      and\n        /* \"Stackup.sol\":2596:2680  playerQuestStatuses[msg.sender][questId] ==... */\n      0x02\n      dup2\n      gt\n      iszero\n      tag_54\n      jumpi\n      tag_55\n      tag_53\n      jump\t// in\n    tag_55:\n    tag_54:\n      eq\n        /* \"Stackup.sol\":2575:2738  require(... */\n      tag_56\n      jumpi\n      mload(0x40)\n      0x08c379a000000000000000000000000000000000000000000000000000000000\n      dup2\n      mstore\n      0x04\n      add\n      tag_57\n      swap1\n      tag_58\n      jump\t// in\n    tag_57:\n      mload(0x40)\n      dup1\n      swap2\n      sub\n      swap1\n      revert\n    tag_56:\n        /* \"Stackup.sol\":2792:2819  PlayerQuestStatus.SUBMITTED */\n      0x02\n        /* \"Stackup.sol\":2749:2768  playerQuestStatuses */\n      0x03\n        /* \"Stackup.sol\":2749:2780  playerQuestStatuses[msg.sender] */\n      0x00\n        /* \"Stackup.sol\":2769:2779  msg.sender */\n      caller\n        /* \"Stackup.sol\":2749:2780  playerQuestStatuses[msg.sender] */\n      0xffffffffffffffffffffffffffffffffffffffff\n      and\n      0xffffffffffffffffffffffffffffffffffffffff\n      and\n      dup2\n      mstore\n      0x20\n      add\n      swap1\n      dup2\n      mstore\n      0x20\n      add\n      0x00\n      keccak256\n        /* \"Stackup.sol\":2749:2789  playerQuestStatuses[msg.sender][questId] */\n      0x00\n        /* \"Stackup.sol\":2781:2788  questId */\n      dup7\n        /* \"Stackup.sol\":2749:2789  playerQuestStatuses[msg.sender][questId] */\n      dup2\n      mstore\n      0x20\n      add\n      swap1\n      dup2\n      mstore\n      0x20\n      add\n      0x00\n      keccak256\n      0x00\n        /* \"Stackup.sol\":2749:2819  playerQuestStatuses[msg.sender][questId] = PlayerQuestStatus.SUBMITTED */\n      0x0100\n      exp\n      dup2\n      sload\n      dup2\n      0xff\n      mul\n      not\n      and\n      swap1\n      dup4\n      0x02\n      dup2\n      gt\n      iszero\n      tag_59\n      jumpi\n      tag_60\n      tag_53\n      jump\t// in\n    tag_60:\n    tag_59:\n      mul\n      or\n      swap1\n      sstore\n      pop\n        /* \"Stackup.sol\":3003:3004  _ */\n      pop\n      pop\n        /* \"Stackup.sol\":2410:2826  function submitQuest(uint256 campaignId, uint256 questId)... */\n      pop\n      pop\n      pop\n      jump\t// out\n        /* \"Stackup.sol\":537:582  mapping(uint256 => Campaign) public campaigns */\n    tag_18:\n      mstore(0x20, 0x01)\n      dup1\n      0x00\n      mstore\n      keccak256(0x00, 0x40)\n      0x00\n      swap2\n      pop\n      swap1\n      pop\n      dup1\n      0x00\n      add\n      sload\n      swap1\n      dup1\n      0x02\n      add\n      sload\n      swap1\n      pop\n      dup3\n      jump\t// out\n        /* \"Stackup.sol\":588:617  uint256 public nextCampaignId */\n    tag_22:\n      sload(0x02)\n      dup2\n      jump\t// out\n        /* \"Stackup.sol\":778:1632  function createQuest(... */\n    tag_28:\n        /* \"Stackup.sol\":1000:1010  campaignId */\n      dup7\n        /* \"Stackup.sol\":2943:2944  0 */\n      0x00\n        /* \"Stackup.sol\":2907:2916  campaigns */\n      0x01\n        /* \"Stackup.sol\":2907:2928  campaigns[campaignId] */\n      0x00\n        /* \"Stackup.sol\":2917:2927  campaignId */\n      dup4\n        /* \"Stackup.sol\":2907:2928  campaigns[campaignId] */\n      dup2\n      mstore\n      0x20\n      add\n      swap1\n      dup2\n      mstore\n      0x20\n      add\n      0x00\n      keccak256\n        /* \"Stackup.sol\":2907:2940  campaigns[campaignId].nextQuestId */\n      0x02\n      add\n      sload\n        /* \"Stackup.sol\":2907:2944  campaigns[campaignId].nextQuestId > 0 */\n      gt\n        /* \"Stackup.sol\":2886:2993  require(... */\n      tag_62\n      jumpi\n      mload(0x40)\n      0x08c379a000000000000000000000000000000000000000000000000000000000\n      dup2\n      mstore\n      0x04\n      add\n      tag_63\n      swap1\n      tag_45\n      jump\t// in\n    tag_63:\n      mload(0x40)\n      dup1\n      swap2\n      sub\n      swap1\n      revert\n    tag_62:\n        /* \"Stackup.sol\":1044:1049  admin */\n      0x00\n      dup1\n      sload\n      swap1\n      0x0100\n      exp\n      swap1\n      div\n      0xffffffffffffffffffffffffffffffffffffffff\n      and\n        /* \"Stackup.sol\":1030:1049  msg.sender == admin */\n      0xffffffffffffffffffffffffffffffffffffffff\n      and\n        /* \"Stackup.sol\":1030:1040  msg.sender */\n      caller\n        /* \"Stackup.sol\":1030:1049  msg.sender == admin */\n      0xffffffffffffffffffffffffffffffffffffffff\n      and\n      eq\n        /* \"Stackup.sol\":1022:1086  require(msg.sender == admin, \"Only the admin can create quests\") */\n      tag_65\n      jumpi\n      mload(0x40)\n      0x08c379a000000000000000000000000000000000000000000000000000000000\n      dup2\n      mstore\n      0x04\n      add\n      tag_66\n      swap1\n      tag_67\n      jump\t// in\n    tag_66:\n      mload(0x40)\n      dup1\n      swap2\n      sub\n      swap1\n      revert\n    tag_65:\n        /* \"Stackup.sol\":1096:1121  Campaign storage campaign */\n      0x00\n        /* \"Stackup.sol\":1124:1133  campaigns */\n      0x01\n        /* \"Stackup.sol\":1124:1145  campaigns[campaignId] */\n      0x00\n        /* \"Stackup.sol\":1134:1144  campaignId */\n      dup11\n        /* \"Stackup.sol\":1124:1145  campaigns[campaignId] */\n      dup2\n      mstore\n      0x20\n      add\n      swap1\n      dup2\n      mstore\n      0x20\n      add\n      0x00\n      keccak256\n        /* \"Stackup.sol\":1096:1145  Campaign storage campaign = campaigns[campaignId] */\n      swap1\n      pop\n        /* \"Stackup.sol\":1203:1211  campaign */\n      dup1\n        /* \"Stackup.sol\":1203:1223  campaign.nextQuestId */\n      0x02\n      add\n      sload\n        /* \"Stackup.sol\":1155:1163  campaign */\n      dup2\n        /* \"Stackup.sol\":1155:1170  campaign.quests */\n      0x01\n      add\n        /* \"Stackup.sol\":1155:1192  campaign.quests[campaign.nextQuestId] */\n      0x00\n        /* \"Stackup.sol\":1171:1179  campaign */\n      dup4\n        /* \"Stackup.sol\":1171:1191  campaign.nextQuestId */\n      0x02\n      add\n      sload\n        /* \"Stackup.sol\":1155:1192  campaign.quests[campaign.nextQuestId] */\n      dup2\n      mstore\n      0x20\n      add\n      swap1\n      dup2\n      mstore\n      0x20\n      add\n      0x00\n      keccak256\n        /* \"Stackup.sol\":1155:1200  campaign.quests[campaign.nextQuestId].questId */\n      0x00\n      add\n        /* \"Stackup.sol\":1155:1223  campaign.quests[campaign.nextQuestId].questId = campaign.nextQuestId */\n      dup2\n      swap1\n      sstore\n      pop\n        /* \"Stackup.sol\":1279:1285  title_ */\n      dup8\n      dup8\n        /* \"Stackup.sol\":1233:1241  campaign */\n      dup3\n        /* \"Stackup.sol\":1233:1248  campaign.quests */\n      0x01\n      add\n        /* \"Stackup.sol\":1233:1270  campaign.quests[campaign.nextQuestId] */\n      0x00\n        /* \"Stackup.sol\":1249:1257  campaign */\n      dup5\n        /* \"Stackup.sol\":1249:1269  campaign.nextQuestId */\n      0x02\n      add\n      sload\n        /* \"Stackup.sol\":1233:1270  campaign.quests[campaign.nextQuestId] */\n      dup2\n      mstore\n      0x20\n      add\n      swap1\n      dup2\n      mstore\n      0x20\n      add\n      0x00\n      keccak256\n        /* \"Stackup.sol\":1233:1276  campaign.quests[campaign.nextQuestId].title */\n      0x02\n      add\n        /* \"Stackup.sol\":1233:1285  campaign.quests[campaign.nextQuestId].title = title_ */\n      swap2\n      dup3\n      tag_68\n      swap3\n      swap2\n      swap1\n      tag_69\n      jump\t// in\n    tag_68:\n      pop\n        /* \"Stackup.sol\":1342:1349  reward_ */\n      dup6\n        /* \"Stackup.sol\":1295:1303  campaign */\n      dup2\n        /* \"Stackup.sol\":1295:1310  campaign.quests */\n      0x01\n      add\n        /* \"Stackup.sol\":1295:1332  campaign.quests[campaign.nextQuestId] */\n      0x00\n        /* \"Stackup.sol\":1311:1319  campaign */\n      dup4\n        /* \"Stackup.sol\":1311:1331  campaign.nextQuestId */\n      0x02\n      add\n      sload\n        /* \"Stackup.sol\":1295:1332  campaign.quests[campaign.nextQuestId] */\n      dup2\n      mstore\n      0x20\n      add\n      swap1\n      dup2\n      mstore\n      0x20\n      add\n      0x00\n      keccak256\n        /* \"Stackup.sol\":1295:1339  campaign.quests[campaign.nextQuestId].reward */\n      0x03\n      add\n      0x00\n        /* \"Stackup.sol\":1295:1349  campaign.quests[campaign.nextQuestId].reward = reward_ */\n      0x0100\n      exp\n      dup2\n      sload\n      dup2\n      0xff\n      mul\n      not\n      and\n      swap1\n      dup4\n      0xff\n      and\n      mul\n      or\n      swap1\n      sstore\n      pop\n        /* \"Stackup.sol\":1441:1457  numberOfRewards_ */\n      dup5\n        /* \"Stackup.sol\":1359:1367  campaign */\n      dup2\n        /* \"Stackup.sol\":1359:1387  campaign... */\n      0x01\n      add\n        /* \"Stackup.sol\":1359:1409  campaign... */\n      0x00\n        /* \"Stackup.sol\":1388:1396  campaign */\n      dup4\n        /* \"Stackup.sol\":1388:1408  campaign.nextQuestId */\n      0x02\n      add\n      sload\n        /* \"Stackup.sol\":1359:1409  campaign... */\n      dup2\n      mstore\n      0x20\n      add\n      swap1\n      dup2\n      mstore\n      0x20\n      add\n      0x00\n      keccak256\n        /* \"Stackup.sol\":1359:1438  campaign... */\n      0x04\n      add\n        /* \"Stackup.sol\":1359:1457  campaign... */\n      dup2\n      swap1\n      sstore\n      pop\n        /* \"Stackup.sol\":1517:1527  startTime_ */\n      dup4\n        /* \"Stackup.sol\":1467:1475  campaign */\n      dup2\n        /* \"Stackup.sol\":1467:1482  campaign.quests */\n      0x01\n      add\n        /* \"Stackup.sol\":1467:1504  campaign.quests[campaign.nextQuestId] */\n      0x00\n        /* \"Stackup.sol\":1483:1491  campaign */\n      dup4\n        /* \"Stackup.sol\":1483:1503  campaign.nextQuestId */\n      0x02\n      add\n      sload\n        /* \"Stackup.sol\":1467:1504  campaign.quests[campaign.nextQuestId] */\n      dup2\n      mstore\n      0x20\n      add\n      swap1\n      dup2\n      mstore\n      0x20\n      add\n      0x00\n      keccak256\n        /* \"Stackup.sol\":1467:1514  campaign.quests[campaign.nextQuestId].startTime */\n      0x05\n      add\n        /* \"Stackup.sol\":1467:1527  campaign.quests[campaign.nextQuestId].startTime = startTime_ */\n      dup2\n      swap1\n      sstore\n      pop\n        /* \"Stackup.sol\":1585:1593  endTime_ */\n      dup3\n        /* \"Stackup.sol\":1537:1545  campaign */\n      dup2\n        /* \"Stackup.sol\":1537:1552  campaign.quests */\n      0x01\n      add\n        /* \"Stackup.sol\":1537:1574  campaign.quests[campaign.nextQuestId] */\n      0x00\n        /* \"Stackup.sol\":1553:1561  campaign */\n      dup4\n        /* \"Stackup.sol\":1553:1573  campaign.nextQuestId */\n      0x02\n      add\n      sload\n        /* \"Stackup.sol\":1537:1574  campaign.quests[campaign.nextQuestId] */\n      dup2\n      mstore\n      0x20\n      add\n      swap1\n      dup2\n      mstore\n      0x20\n      add\n      0x00\n      keccak256\n        /* \"Stackup.sol\":1537:1582  campaign.quests[campaign.nextQuestId].endTime */\n      0x06\n      add\n        /* \"Stackup.sol\":1537:1593  campaign.quests[campaign.nextQuestId].endTime = endTime_ */\n      dup2\n      swap1\n      sstore\n      pop\n        /* \"Stackup.sol\":1603:1611  campaign */\n      dup1\n        /* \"Stackup.sol\":1603:1623  campaign.nextQuestId */\n      0x02\n      add\n      0x00\n        /* \"Stackup.sol\":1603:1625  campaign.nextQuestId++ */\n      dup2\n      sload\n      dup1\n      swap3\n      swap2\n      swap1\n      tag_70\n      swap1\n      tag_71\n      jump\t// in\n    tag_70:\n      swap2\n      swap1\n      pop\n      sstore\n      pop\n        /* \"Stackup.sol\":1012:1632  {... */\n      pop\n        /* \"Stackup.sol\":778:1632  function createQuest(... */\n      pop\n      pop\n      pop\n      pop\n      pop\n      pop\n      pop\n      pop\n      jump\t// out\n        /* \"Stackup.sol\":624:716  mapping(address => mapping(uint256 => PlayerQuestStatus))... */\n    tag_32:\n      mstore(0x20, 0x03)\n      dup2\n      0x00\n      mstore\n      mstore(0x20, keccak256(0x00, 0x40))\n      dup1\n      0x00\n      mstore\n      keccak256(0x00, 0x40)\n      0x00\n      swap2\n      pop\n      swap2\n      pop\n      swap1\n      sload\n      swap1\n      0x0100\n      exp\n      swap1\n      div\n      0xff\n      and\n      dup2\n      jump\t// out\n        /* \"Stackup.sol\":1638:2404  function joinQuest(uint256 campaignId, uint256 questId)... */\n    tag_37:\n        /* \"Stackup.sol\":1734:1744  campaignId */\n      dup2\n        /* \"Stackup.sol\":2943:2944  0 */\n      0x00\n        /* \"Stackup.sol\":2907:2916  campaigns */\n      0x01\n        /* \"Stackup.sol\":2907:2928  campaigns[campaignId] */\n      0x00\n        /* \"Stackup.sol\":2917:2927  campaignId */\n      dup4\n        /* \"Stackup.sol\":2907:2928  campaigns[campaignId] */\n      dup2\n      mstore\n      0x20\n      add\n      swap1\n      dup2\n      mstore\n      0x20\n      add\n      0x00\n      keccak256\n        /* \"Stackup.sol\":2907:2940  campaigns[campaignId].nextQuestId */\n      0x02\n      add\n      sload\n        /* \"Stackup.sol\":2907:2944  campaigns[campaignId].nextQuestId > 0 */\n      gt\n        /* \"Stackup.sol\":2886:2993  require(... */\n      tag_73\n      jumpi\n      mload(0x40)\n      0x08c379a000000000000000000000000000000000000000000000000000000000\n      dup2\n      mstore\n      0x04\n      add\n      tag_74\n      swap1\n      tag_45\n      jump\t// in\n    tag_74:\n      mload(0x40)\n      dup1\n      swap2\n      sub\n      swap1\n      revert\n    tag_73:\n        /* \"Stackup.sol\":1766:1776  campaignId */\n      dup3\n        /* \"Stackup.sol\":1778:1785  questId */\n      dup3\n        /* \"Stackup.sol\":3154:3155  0 */\n      0x00\n        /* \"Stackup.sol\":3106:3115  campaigns */\n      0x01\n        /* \"Stackup.sol\":3106:3127  campaigns[campaignId] */\n      0x00\n        /* \"Stackup.sol\":3116:3126  campaignId */\n      dup5\n        /* \"Stackup.sol\":3106:3127  campaigns[campaignId] */\n      dup2\n      mstore\n      0x20\n      add\n      swap1\n      dup2\n      mstore\n      0x20\n      add\n      0x00\n      keccak256\n        /* \"Stackup.sol\":3106:3134  campaigns[campaignId].quests */\n      0x01\n      add\n        /* \"Stackup.sol\":3106:3143  campaigns[campaignId].quests[questId] */\n      0x00\n        /* \"Stackup.sol\":3135:3142  questId */\n      dup4\n        /* \"Stackup.sol\":3106:3143  campaigns[campaignId].quests[questId] */\n      dup2\n      mstore\n      0x20\n      add\n      swap1\n      dup2\n      mstore\n      0x20\n      add\n      0x00\n      keccak256\n        /* \"Stackup.sol\":3106:3150  campaigns[campaignId].quests[questId].reward */\n      0x03\n      add\n      0x00\n      swap1\n      sload\n      swap1\n      0x0100\n      exp\n      swap1\n      div\n      0xff\n      and\n        /* \"Stackup.sol\":3106:3155  campaigns[campaignId].quests[questId].reward != 0 */\n      0xff\n      and\n      sub\n        /* \"Stackup.sol\":3085:3201  require(... */\n      tag_76\n      jumpi\n      mload(0x40)\n      0x08c379a000000000000000000000000000000000000000000000000000000000\n      dup2\n      mstore\n      0x04\n      add\n      tag_77\n      swap1\n      tag_49\n      jump\t// in\n    tag_77:\n      mload(0x40)\n      dup1\n      swap2\n      sub\n      swap1\n      revert\n    tag_76:\n        /* \"Stackup.sol\":1882:1910  PlayerQuestStatus.NOT_JOINED */\n      0x00\n        /* \"Stackup.sol\":1822:1910  playerQuestStatuses[msg.sender][questId] ==... */\n      0x02\n      dup2\n      gt\n      iszero\n      tag_79\n      jumpi\n      tag_80\n      tag_53\n      jump\t// in\n    tag_80:\n    tag_79:\n        /* \"Stackup.sol\":1822:1841  playerQuestStatuses */\n      0x03\n        /* \"Stackup.sol\":1822:1853  playerQuestStatuses[msg.sender] */\n      0x00\n        /* \"Stackup.sol\":1842:1852  msg.sender */\n      caller\n        /* \"Stackup.sol\":1822:1853  playerQuestStatuses[msg.sender] */\n      0xffffffffffffffffffffffffffffffffffffffff\n      and\n      0xffffffffffffffffffffffffffffffffffffffff\n      and\n      dup2\n      mstore\n      0x20\n      add\n      swap1\n      dup2\n      mstore\n      0x20\n      add\n      0x00\n      keccak256\n        /* \"Stackup.sol\":1822:1862  playerQuestStatuses[msg.sender][questId] */\n      0x00\n        /* \"Stackup.sol\":1854:1861  questId */\n      dup7\n        /* \"Stackup.sol\":1822:1862  playerQuestStatuses[msg.sender][questId] */\n      dup2\n      mstore\n      0x20\n      add\n      swap1\n      dup2\n      mstore\n      0x20\n      add\n      0x00\n      keccak256\n      0x00\n      swap1\n      sload\n      swap1\n      0x0100\n      exp\n      swap1\n      div\n      0xff\n      and\n        /* \"Stackup.sol\":1822:1910  playerQuestStatuses[msg.sender][questId] ==... */\n      0x02\n      dup2\n      gt\n      iszero\n      tag_81\n      jumpi\n      tag_82\n      tag_53\n      jump\t// in\n    tag_82:\n    tag_81:\n      eq\n        /* \"Stackup.sol\":1801:1982  require(... */\n      tag_83\n      jumpi\n      mload(0x40)\n      0x08c379a000000000000000000000000000000000000000000000000000000000\n      dup2\n      mstore\n      0x04\n      add\n      tag_84\n      swap1\n      tag_85\n      jump\t// in\n    tag_84:\n      mload(0x40)\n      dup1\n      swap2\n      sub\n      swap1\n      revert\n    tag_83:\n        /* \"Stackup.sol\":1993:2018  Campaign storage campaign */\n      0x00\n        /* \"Stackup.sol\":2021:2030  campaigns */\n      0x01\n        /* \"Stackup.sol\":2021:2042  campaigns[campaignId] */\n      0x00\n        /* \"Stackup.sol\":2031:2041  campaignId */\n      dup8\n        /* \"Stackup.sol\":2021:2042  campaigns[campaignId] */\n      dup2\n      mstore\n      0x20\n      add\n      swap1\n      dup2\n      mstore\n      0x20\n      add\n      0x00\n      keccak256\n        /* \"Stackup.sol\":1993:2042  Campaign storage campaign = campaigns[campaignId] */\n      swap1\n      pop\n        /* \"Stackup.sol\":2052:2075  Quest storage thisQuest */\n      0x00\n        /* \"Stackup.sol\":2078:2086  campaign */\n      dup2\n        /* \"Stackup.sol\":2078:2093  campaign.quests */\n      0x01\n      add\n        /* \"Stackup.sol\":2078:2102  campaign.quests[questId] */\n      0x00\n        /* \"Stackup.sol\":2094:2101  questId */\n      dup8\n        /* \"Stackup.sol\":2078:2102  campaign.quests[questId] */\n      dup2\n      mstore\n      0x20\n      add\n      swap1\n      dup2\n      mstore\n      0x20\n      add\n      0x00\n      keccak256\n        /* \"Stackup.sol\":2052:2102  Quest storage thisQuest = campaign.quests[questId] */\n      swap1\n      pop\n        /* \"Stackup.sol\":2152:2161  thisQuest */\n      dup1\n        /* \"Stackup.sol\":2152:2171  thisQuest.startTime */\n      0x05\n      add\n      sload\n        /* \"Stackup.sol\":2133:2148  block.timestamp */\n      timestamp\n        /* \"Stackup.sol\":2133:2171  block.timestamp >= thisQuest.startTime */\n      lt\n      iszero\n        /* \"Stackup.sol\":2133:2227  block.timestamp >= thisQuest.startTime &&... */\n      dup1\n      iszero\n      tag_86\n      jumpi\n      pop\n        /* \"Stackup.sol\":2210:2219  thisQuest */\n      dup1\n        /* \"Stackup.sol\":2210:2227  thisQuest.endTime */\n      0x06\n      add\n      sload\n        /* \"Stackup.sol\":2191:2206  block.timestamp */\n      timestamp\n        /* \"Stackup.sol\":2191:2227  block.timestamp <= thisQuest.endTime */\n      gt\n      iszero\n        /* \"Stackup.sol\":2133:2227  block.timestamp >= thisQuest.startTime &&... */\n    tag_86:\n        /* \"Stackup.sol\":2112:2282  require(... */\n      tag_87\n      jumpi\n      mload(0x40)\n      0x08c379a000000000000000000000000000000000000000000000000000000000\n      dup2\n      mstore\n      0x04\n      add\n      tag_88\n      swap1\n      tag_89\n      jump\t// in\n    tag_88:\n      mload(0x40)\n      dup1\n      swap2\n      sub\n      swap1\n      revert\n    tag_87:\n        /* \"Stackup.sol\":2336:2360  PlayerQuestStatus.JOINED */\n      0x01\n        /* \"Stackup.sol\":2293:2312  playerQuestStatuses */\n      0x03\n        /* \"Stackup.sol\":2293:2324  playerQuestStatuses[msg.sender] */\n      0x00\n        /* \"Stackup.sol\":2313:2323  msg.sender */\n      caller\n        /* \"Stackup.sol\":2293:2324  playerQuestStatuses[msg.sender] */\n      0xffffffffffffffffffffffffffffffffffffffff\n      and\n      0xffffffffffffffffffffffffffffffffffffffff\n      and\n      dup2\n      mstore\n      0x20\n      add\n      swap1\n      dup2\n      mstore\n      0x20\n      add\n      0x00\n      keccak256\n        /* \"Stackup.sol\":2293:2333  playerQuestStatuses[msg.sender][questId] */\n      0x00\n        /* \"Stackup.sol\":2325:2332  questId */\n      dup9\n        /* \"Stackup.sol\":2293:2333  playerQuestStatuses[msg.sender][questId] */\n      dup2\n      mstore\n      0x20\n      add\n      swap1\n      dup2\n      mstore\n      0x20\n      add\n      0x00\n      keccak256\n      0x00\n        /* \"Stackup.sol\":2293:2360  playerQuestStatuses[msg.sender][questId] = PlayerQuestStatus.JOINED */\n      0x0100\n      exp\n      dup2\n      sload\n      dup2\n      0xff\n      mul\n      not\n      and\n      swap1\n      dup4\n      0x02\n      dup2\n      gt\n      iszero\n      tag_90\n      jumpi\n      tag_91\n      tag_53\n      jump\t// in\n    tag_91:\n    tag_90:\n      mul\n      or\n      swap1\n      sstore\n      pop\n        /* \"Stackup.sol\":2370:2379  thisQuest */\n      dup1\n        /* \"Stackup.sol\":2370:2395  thisQuest.numberOfPlayers */\n      0x01\n      add\n      0x00\n        /* \"Stackup.sol\":2370:2397  thisQuest.numberOfPlayers++ */\n      dup2\n      sload\n      dup1\n      swap3\n      swap2\n      swap1\n      tag_92\n      swap1\n      tag_71\n      jump\t// in\n    tag_92:\n      swap2\n      swap1\n      pop\n      sstore\n      pop\n        /* \"Stackup.sol\":1791:2404  {... */\n      pop\n      pop\n        /* \"Stackup.sol\":3003:3004  _ */\n      pop\n      pop\n        /* \"Stackup.sol\":1638:2404  function joinQuest(uint256 campaignId, uint256 questId)... */\n      pop\n      pop\n      pop\n      jump\t// out\n        /* \"Stackup.sol\":511:531  address public admin */\n    tag_39:\n      0x00\n      dup1\n      sload\n      swap1\n      0x0100\n      exp\n      swap1\n      div\n      0xffffffffffffffffffffffffffffffffffffffff\n      and\n      dup2\n      jump\t// out\n        /* \"#utility.yul\":88:205   */\n    tag_94:\n        /* \"#utility.yul\":197:198   */\n      0x00\n        /* \"#utility.yul\":194:195   */\n      dup1\n        /* \"#utility.yul\":187:199   */\n      revert\n        /* \"#utility.yul\":211:328   */\n    tag_95:\n        /* \"#utility.yul\":320:321   */\n      0x00\n        /* \"#utility.yul\":317:318   */\n      dup1\n        /* \"#utility.yul\":310:322   */\n      revert\n        /* \"#utility.yul\":334:411   */\n    tag_96:\n        /* \"#utility.yul\":371:378   */\n      0x00\n        /* \"#utility.yul\":400:405   */\n      dup2\n        /* \"#utility.yul\":389:405   */\n      swap1\n      pop\n        /* \"#utility.yul\":334:411   */\n      swap2\n      swap1\n      pop\n      jump\t// out\n        /* \"#utility.yul\":417:539   */\n    tag_97:\n        /* \"#utility.yul\":490:514   */\n      tag_155\n        /* \"#utility.yul\":508:513   */\n      dup2\n        /* \"#utility.yul\":490:514   */\n      tag_96\n      jump\t// in\n    tag_155:\n        /* \"#utility.yul\":483:488   */\n      dup2\n        /* \"#utility.yul\":480:515   */\n      eq\n        /* \"#utility.yul\":470:533   */\n      tag_156\n      jumpi\n        /* \"#utility.yul\":529:530   */\n      0x00\n        /* \"#utility.yul\":526:527   */\n      dup1\n        /* \"#utility.yul\":519:531   */\n      revert\n        /* \"#utility.yul\":470:533   */\n    tag_156:\n        /* \"#utility.yul\":417:539   */\n      pop\n      jump\t// out\n        /* \"#utility.yul\":545:684   */\n    tag_98:\n        /* \"#utility.yul\":591:596   */\n      0x00\n        /* \"#utility.yul\":629:635   */\n      dup2\n        /* \"#utility.yul\":616:636   */\n      calldataload\n        /* \"#utility.yul\":607:636   */\n      swap1\n      pop\n        /* \"#utility.yul\":645:678   */\n      tag_158\n        /* \"#utility.yul\":672:677   */\n      dup2\n        /* \"#utility.yul\":645:678   */\n      tag_97\n      jump\t// in\n    tag_158:\n        /* \"#utility.yul\":545:684   */\n      swap3\n      swap2\n      pop\n      pop\n      jump\t// out\n        /* \"#utility.yul\":690:1164   */\n    tag_13:\n        /* \"#utility.yul\":758:764   */\n      0x00\n        /* \"#utility.yul\":766:772   */\n      dup1\n        /* \"#utility.yul\":815:817   */\n      0x40\n        /* \"#utility.yul\":803:812   */\n      dup4\n        /* \"#utility.yul\":794:801   */\n      dup6\n        /* \"#utility.yul\":790:813   */\n      sub\n        /* \"#utility.yul\":786:818   */\n      slt\n        /* \"#utility.yul\":783:902   */\n      iszero\n      tag_160\n      jumpi\n        /* \"#utility.yul\":821:900   */\n      tag_161\n      tag_94\n      jump\t// in\n    tag_161:\n        /* \"#utility.yul\":783:902   */\n    tag_160:\n        /* \"#utility.yul\":941:942   */\n      0x00\n        /* \"#utility.yul\":966:1019   */\n      tag_162\n        /* \"#utility.yul\":1011:1018   */\n      dup6\n        /* \"#utility.yul\":1002:1008   */\n      dup3\n        /* \"#utility.yul\":991:1000   */\n      dup7\n        /* \"#utility.yul\":987:1009   */\n      add\n        /* \"#utility.yul\":966:1019   */\n      tag_98\n      jump\t// in\n    tag_162:\n        /* \"#utility.yul\":956:1019   */\n      swap3\n      pop\n        /* \"#utility.yul\":912:1029   */\n      pop\n        /* \"#utility.yul\":1068:1070   */\n      0x20\n        /* \"#utility.yul\":1094:1147   */\n      tag_163\n        /* \"#utility.yul\":1139:1146   */\n      dup6\n        /* \"#utility.yul\":1130:1136   */\n      dup3\n        /* \"#utility.yul\":1119:1128   */\n      dup7\n        /* \"#utility.yul\":1115:1137   */\n      add\n        /* \"#utility.yul\":1094:1147   */\n      tag_98\n      jump\t// in\n    tag_163:\n        /* \"#utility.yul\":1084:1147   */\n      swap2\n      pop\n        /* \"#utility.yul\":1039:1157   */\n      pop\n        /* \"#utility.yul\":690:1164   */\n      swap3\n      pop\n      swap3\n      swap1\n      pop\n      jump\t// out\n        /* \"#utility.yul\":1170:1499   */\n    tag_17:\n        /* \"#utility.yul\":1229:1235   */\n      0x00\n        /* \"#utility.yul\":1278:1280   */\n      0x20\n        /* \"#utility.yul\":1266:1275   */\n      dup3\n        /* \"#utility.yul\":1257:1264   */\n      dup5\n        /* \"#utility.yul\":1253:1276   */\n      sub\n        /* \"#utility.yul\":1249:1281   */\n      slt\n        /* \"#utility.yul\":1246:1365   */\n      iszero\n      tag_165\n      jumpi\n        /* \"#utility.yul\":1284:1363   */\n      tag_166\n      tag_94\n      jump\t// in\n    tag_166:\n        /* \"#utility.yul\":1246:1365   */\n    tag_165:\n        /* \"#utility.yul\":1404:1405   */\n      0x00\n        /* \"#utility.yul\":1429:1482   */\n      tag_167\n        /* \"#utility.yul\":1474:1481   */\n      dup5\n        /* \"#utility.yul\":1465:1471   */\n      dup3\n        /* \"#utility.yul\":1454:1463   */\n      dup6\n        /* \"#utility.yul\":1450:1472   */\n      add\n        /* \"#utility.yul\":1429:1482   */\n      tag_98\n      jump\t// in\n    tag_167:\n        /* \"#utility.yul\":1419:1482   */\n      swap2\n      pop\n        /* \"#utility.yul\":1375:1492   */\n      pop\n        /* \"#utility.yul\":1170:1499   */\n      swap3\n      swap2\n      pop\n      pop\n      jump\t// out\n        /* \"#utility.yul\":1505:1623   */\n    tag_99:\n        /* \"#utility.yul\":1592:1616   */\n      tag_169\n        /* \"#utility.yul\":1610:1615   */\n      dup2\n        /* \"#utility.yul\":1592:1616   */\n      tag_96\n      jump\t// in\n    tag_169:\n        /* \"#utility.yul\":1587:1590   */\n      dup3\n        /* \"#utility.yul\":1580:1617   */\n      mstore\n        /* \"#utility.yul\":1505:1623   */\n      pop\n      pop\n      jump\t// out\n        /* \"#utility.yul\":1629:1961   */\n    tag_20:\n        /* \"#utility.yul\":1750:1754   */\n      0x00\n        /* \"#utility.yul\":1788:1790   */\n      0x40\n        /* \"#utility.yul\":1777:1786   */\n      dup3\n        /* \"#utility.yul\":1773:1791   */\n      add\n        /* \"#utility.yul\":1765:1791   */\n      swap1\n      pop\n        /* \"#utility.yul\":1801:1872   */\n      tag_171\n        /* \"#utility.yul\":1869:1870   */\n      0x00\n        /* \"#utility.yul\":1858:1867   */\n      dup4\n        /* \"#utility.yul\":1854:1871   */\n      add\n        /* \"#utility.yul\":1845:1851   */\n      dup6\n        /* \"#utility.yul\":1801:1872   */\n      tag_99\n      jump\t// in\n    tag_171:\n        /* \"#utility.yul\":1882:1954   */\n      tag_172\n        /* \"#utility.yul\":1950:1952   */\n      0x20\n        /* \"#utility.yul\":1939:1948   */\n      dup4\n        /* \"#utility.yul\":1935:1953   */\n      add\n        /* \"#utility.yul\":1926:1932   */\n      dup5\n        /* \"#utility.yul\":1882:1954   */\n      tag_99\n      jump\t// in\n    tag_172:\n        /* \"#utility.yul\":1629:1961   */\n      swap4\n      swap3\n      pop\n      pop\n      pop\n      jump\t// out\n        /* \"#utility.yul\":1967:2189   */\n    tag_24:\n        /* \"#utility.yul\":2060:2064   */\n      0x00\n        /* \"#utility.yul\":2098:2100   */\n      0x20\n        /* \"#utility.yul\":2087:2096   */\n      dup3\n        /* \"#utility.yul\":2083:2101   */\n      add\n        /* \"#utility.yul\":2075:2101   */\n      swap1\n      pop\n        /* \"#utility.yul\":2111:2182   */\n      tag_174\n        /* \"#utility.yul\":2179:2180   */\n      0x00\n        /* \"#utility.yul\":2168:2177   */\n      dup4\n        /* \"#utility.yul\":2164:2181   */\n      add\n        /* \"#utility.yul\":2155:2161   */\n      dup5\n        /* \"#utility.yul\":2111:2182   */\n      tag_99\n      jump\t// in\n    tag_174:\n        /* \"#utility.yul\":1967:2189   */\n      swap3\n      swap2\n      pop\n      pop\n      jump\t// out\n        /* \"#utility.yul\":2195:2312   */\n    tag_100:\n        /* \"#utility.yul\":2304:2305   */\n      0x00\n        /* \"#utility.yul\":2301:2302   */\n      dup1\n        /* \"#utility.yul\":2294:2306   */\n      revert\n        /* \"#utility.yul\":2318:2435   */\n    tag_101:\n        /* \"#utility.yul\":2427:2428   */\n      0x00\n        /* \"#utility.yul\":2424:2425   */\n      dup1\n        /* \"#utility.yul\":2417:2429   */\n      revert\n        /* \"#utility.yul\":2441:2558   */\n    tag_102:\n        /* \"#utility.yul\":2550:2551   */\n      0x00\n        /* \"#utility.yul\":2547:2548   */\n      dup1\n        /* \"#utility.yul\":2540:2552   */\n      revert\n        /* \"#utility.yul\":2578:3131   */\n    tag_103:\n        /* \"#utility.yul\":2636:2644   */\n      0x00\n        /* \"#utility.yul\":2646:2652   */\n      dup1\n        /* \"#utility.yul\":2696:2699   */\n      dup4\n        /* \"#utility.yul\":2689:2693   */\n      0x1f\n        /* \"#utility.yul\":2681:2687   */\n      dup5\n        /* \"#utility.yul\":2677:2694   */\n      add\n        /* \"#utility.yul\":2673:2700   */\n      slt\n        /* \"#utility.yul\":2663:2785   */\n      tag_179\n      jumpi\n        /* \"#utility.yul\":2704:2783   */\n      tag_180\n      tag_100\n      jump\t// in\n    tag_180:\n        /* \"#utility.yul\":2663:2785   */\n    tag_179:\n        /* \"#utility.yul\":2817:2823   */\n      dup3\n        /* \"#utility.yul\":2804:2824   */\n      calldataload\n        /* \"#utility.yul\":2794:2824   */\n      swap1\n      pop\n        /* \"#utility.yul\":2847:2865   */\n      0xffffffffffffffff\n        /* \"#utility.yul\":2839:2845   */\n      dup2\n        /* \"#utility.yul\":2836:2866   */\n      gt\n        /* \"#utility.yul\":2833:2950   */\n      iszero\n      tag_181\n      jumpi\n        /* \"#utility.yul\":2869:2948   */\n      tag_182\n      tag_101\n      jump\t// in\n    tag_182:\n        /* \"#utility.yul\":2833:2950   */\n    tag_181:\n        /* \"#utility.yul\":2983:2987   */\n      0x20\n        /* \"#utility.yul\":2975:2981   */\n      dup4\n        /* \"#utility.yul\":2971:2988   */\n      add\n        /* \"#utility.yul\":2959:2988   */\n      swap2\n      pop\n        /* \"#utility.yul\":3037:3040   */\n      dup4\n        /* \"#utility.yul\":3029:3033   */\n      0x01\n        /* \"#utility.yul\":3021:3027   */\n      dup3\n        /* \"#utility.yul\":3017:3034   */\n      mul\n        /* \"#utility.yul\":3007:3015   */\n      dup4\n        /* \"#utility.yul\":3003:3035   */\n      add\n        /* \"#utility.yul\":3000:3041   */\n      gt\n        /* \"#utility.yul\":2997:3125   */\n      iszero\n      tag_183\n      jumpi\n        /* \"#utility.yul\":3044:3123   */\n      tag_184\n      tag_102\n      jump\t// in\n    tag_184:\n        /* \"#utility.yul\":2997:3125   */\n    tag_183:\n        /* \"#utility.yul\":2578:3131   */\n      swap3\n      pop\n      swap3\n      swap1\n      pop\n      jump\t// out\n        /* \"#utility.yul\":3137:3223   */\n    tag_104:\n        /* \"#utility.yul\":3172:3179   */\n      0x00\n        /* \"#utility.yul\":3212:3216   */\n      0xff\n        /* \"#utility.yul\":3205:3210   */\n      dup3\n        /* \"#utility.yul\":3201:3217   */\n      and\n        /* \"#utility.yul\":3190:3217   */\n      swap1\n      pop\n        /* \"#utility.yul\":3137:3223   */\n      swap2\n      swap1\n      pop\n      jump\t// out\n        /* \"#utility.yul\":3229:3347   */\n    tag_105:\n        /* \"#utility.yul\":3300:3322   */\n      tag_187\n        /* \"#utility.yul\":3316:3321   */\n      dup2\n        /* \"#utility.yul\":3300:3322   */\n      tag_104\n      jump\t// in\n    tag_187:\n        /* \"#utility.yul\":3293:3298   */\n      dup2\n        /* \"#utility.yul\":3290:3323   */\n      eq\n        /* \"#utility.yul\":3280:3341   */\n      tag_188\n      jumpi\n        /* \"#utility.yul\":3337:3338   */\n      0x00\n        /* \"#utility.yul\":3334:3335   */\n      dup1\n        /* \"#utility.yul\":3327:3339   */\n      revert\n        /* \"#utility.yul\":3280:3341   */\n    tag_188:\n        /* \"#utility.yul\":3229:3347   */\n      pop\n      jump\t// out\n        /* \"#utility.yul\":3353:3488   */\n    tag_106:\n        /* \"#utility.yul\":3397:3402   */\n      0x00\n        /* \"#utility.yul\":3435:3441   */\n      dup2\n        /* \"#utility.yul\":3422:3442   */\n      calldataload\n        /* \"#utility.yul\":3413:3442   */\n      swap1\n      pop\n        /* \"#utility.yul\":3451:3482   */\n      tag_190\n        /* \"#utility.yul\":3476:3481   */\n      dup2\n        /* \"#utility.yul\":3451:3482   */\n      tag_105\n      jump\t// in\n    tag_190:\n        /* \"#utility.yul\":3353:3488   */\n      swap3\n      swap2\n      pop\n      pop\n      jump\t// out\n        /* \"#utility.yul\":3494:4747   */\n    tag_27:\n        /* \"#utility.yul\":3608:3614   */\n      0x00\n        /* \"#utility.yul\":3616:3622   */\n      dup1\n        /* \"#utility.yul\":3624:3630   */\n      0x00\n        /* \"#utility.yul\":3632:3638   */\n      dup1\n        /* \"#utility.yul\":3640:3646   */\n      0x00\n        /* \"#utility.yul\":3648:3654   */\n      dup1\n        /* \"#utility.yul\":3656:3662   */\n      0x00\n        /* \"#utility.yul\":3705:3708   */\n      0xc0\n        /* \"#utility.yul\":3693:3702   */\n      dup9\n        /* \"#utility.yul\":3684:3691   */\n      dup11\n        /* \"#utility.yul\":3680:3703   */\n      sub\n        /* \"#utility.yul\":3676:3709   */\n      slt\n        /* \"#utility.yul\":3673:3793   */\n      iszero\n      tag_192\n      jumpi\n        /* \"#utility.yul\":3712:3791   */\n      tag_193\n      tag_94\n      jump\t// in\n    tag_193:\n        /* \"#utility.yul\":3673:3793   */\n    tag_192:\n        /* \"#utility.yul\":3832:3833   */\n      0x00\n        /* \"#utility.yul\":3857:3910   */\n      tag_194\n        /* \"#utility.yul\":3902:3909   */\n      dup11\n        /* \"#utility.yul\":3893:3899   */\n      dup3\n        /* \"#utility.yul\":3882:3891   */\n      dup12\n        /* \"#utility.yul\":3878:3900   */\n      add\n        /* \"#utility.yul\":3857:3910   */\n      tag_98\n      jump\t// in\n    tag_194:\n        /* \"#utility.yul\":3847:3910   */\n      swap8\n      pop\n        /* \"#utility.yul\":3803:3920   */\n      pop\n        /* \"#utility.yul\":3987:3989   */\n      0x20\n        /* \"#utility.yul\":3976:3985   */\n      dup9\n        /* \"#utility.yul\":3972:3990   */\n      add\n        /* \"#utility.yul\":3959:3991   */\n      calldataload\n        /* \"#utility.yul\":4018:4036   */\n      0xffffffffffffffff\n        /* \"#utility.yul\":4010:4016   */\n      dup2\n        /* \"#utility.yul\":4007:4037   */\n      gt\n        /* \"#utility.yul\":4004:4121   */\n      iszero\n      tag_195\n      jumpi\n        /* \"#utility.yul\":4040:4119   */\n      tag_196\n      tag_95\n      jump\t// in\n    tag_196:\n        /* \"#utility.yul\":4004:4121   */\n    tag_195:\n        /* \"#utility.yul\":4153:4218   */\n      tag_197\n        /* \"#utility.yul\":4210:4217   */\n      dup11\n        /* \"#utility.yul\":4201:4207   */\n      dup3\n        /* \"#utility.yul\":4190:4199   */\n      dup12\n        /* \"#utility.yul\":4186:4208   */\n      add\n        /* \"#utility.yul\":4153:4218   */\n      tag_103\n      jump\t// in\n    tag_197:\n        /* \"#utility.yul\":4135:4218   */\n      swap7\n      pop\n      swap7\n      pop\n        /* \"#utility.yul\":3930:4228   */\n      pop\n        /* \"#utility.yul\":4267:4269   */\n      0x40\n        /* \"#utility.yul\":4293:4344   */\n      tag_198\n        /* \"#utility.yul\":4336:4343   */\n      dup11\n        /* \"#utility.yul\":4327:4333   */\n      dup3\n        /* \"#utility.yul\":4316:4325   */\n      dup12\n        /* \"#utility.yul\":4312:4334   */\n      add\n        /* \"#utility.yul\":4293:4344   */\n      tag_106\n      jump\t// in\n    tag_198:\n        /* \"#utility.yul\":4283:4344   */\n      swap5\n      pop\n        /* \"#utility.yul\":4238:4354   */\n      pop\n        /* \"#utility.yul\":4393:4395   */\n      0x60\n        /* \"#utility.yul\":4419:4472   */\n      tag_199\n        /* \"#utility.yul\":4464:4471   */\n      dup11\n        /* \"#utility.yul\":4455:4461   */\n      dup3\n        /* \"#utility.yul\":4444:4453   */\n      dup12\n        /* \"#utility.yul\":4440:4462   */\n      add\n        /* \"#utility.yul\":4419:4472   */\n      tag_98\n      jump\t// in\n    tag_199:\n        /* \"#utility.yul\":4409:4472   */\n      swap4\n      pop\n        /* \"#utility.yul\":4364:4482   */\n      pop\n        /* \"#utility.yul\":4521:4524   */\n      0x80\n        /* \"#utility.yul\":4548:4601   */\n      tag_200\n        /* \"#utility.yul\":4593:4600   */\n      dup11\n        /* \"#utility.yul\":4584:4590   */\n      dup3\n        /* \"#utility.yul\":4573:4582   */\n      dup12\n        /* \"#utility.yul\":4569:4591   */\n      add\n        /* \"#utility.yul\":4548:4601   */\n      tag_98\n      jump\t// in\n    tag_200:\n        /* \"#utility.yul\":4538:4601   */\n      swap3\n      pop\n        /* \"#utility.yul\":4492:4611   */\n      pop\n        /* \"#utility.yul\":4650:4653   */\n      0xa0\n        /* \"#utility.yul\":4677:4730   */\n      tag_201\n        /* \"#utility.yul\":4722:4729   */\n      dup11\n        /* \"#utility.yul\":4713:4719   */\n      dup3\n        /* \"#utility.yul\":4702:4711   */\n      dup12\n        /* \"#utility.yul\":4698:4720   */\n      add\n        /* \"#utility.yul\":4677:4730   */\n      tag_98\n      jump\t// in\n    tag_201:\n        /* \"#utility.yul\":4667:4730   */\n      swap2\n      pop\n        /* \"#utility.yul\":4621:4740   */\n      pop\n        /* \"#utility.yul\":3494:4747   */\n      swap3\n      swap6\n      swap9\n      swap2\n      swap5\n      swap8\n      pop\n      swap3\n      swap6\n      pop\n      jump\t// out\n        /* \"#utility.yul\":4753:4879   */\n    tag_107:\n        /* \"#utility.yul\":4790:4797   */\n      0x00\n        /* \"#utility.yul\":4830:4872   */\n      0xffffffffffffffffffffffffffffffffffffffff\n        /* \"#utility.yul\":4823:4828   */\n      dup3\n        /* \"#utility.yul\":4819:4873   */\n      and\n        /* \"#utility.yul\":4808:4873   */\n      swap1\n      pop\n        /* \"#utility.yul\":4753:4879   */\n      swap2\n      swap1\n      pop\n      jump\t// out\n        /* \"#utility.yul\":4885:4981   */\n    tag_108:\n        /* \"#utility.yul\":4922:4929   */\n      0x00\n        /* \"#utility.yul\":4951:4975   */\n      tag_204\n        /* \"#utility.yul\":4969:4974   */\n      dup3\n        /* \"#utility.yul\":4951:4975   */\n      tag_107\n      jump\t// in\n    tag_204:\n        /* \"#utility.yul\":4940:4975   */\n      swap1\n      pop\n        /* \"#utility.yul\":4885:4981   */\n      swap2\n      swap1\n      pop\n      jump\t// out\n        /* \"#utility.yul\":4987:5109   */\n    tag_109:\n        /* \"#utility.yul\":5060:5084   */\n      tag_206\n        /* \"#utility.yul\":5078:5083   */\n      dup2\n        /* \"#utility.yul\":5060:5084   */\n      tag_108\n      jump\t// in\n    tag_206:\n        /* \"#utility.yul\":5053:5058   */\n      dup2\n        /* \"#utility.yul\":5050:5085   */\n      eq\n        /* \"#utility.yul\":5040:5103   */\n      tag_207\n      jumpi\n        /* \"#utility.yul\":5099:5100   */\n      0x00\n        /* \"#utility.yul\":5096:5097   */\n      dup1\n        /* \"#utility.yul\":5089:5101   */\n      revert\n        /* \"#utility.yul\":5040:5103   */\n    tag_207:\n        /* \"#utility.yul\":4987:5109   */\n      pop\n      jump\t// out\n        /* \"#utility.yul\":5115:5254   */\n    tag_110:\n        /* \"#utility.yul\":5161:5166   */\n      0x00\n        /* \"#utility.yul\":5199:5205   */\n      dup2\n        /* \"#utility.yul\":5186:5206   */\n      calldataload\n        /* \"#utility.yul\":5177:5206   */\n      swap1\n      pop\n        /* \"#utility.yul\":5215:5248   */\n      tag_209\n        /* \"#utility.yul\":5242:5247   */\n      dup2\n        /* \"#utility.yul\":5215:5248   */\n      tag_109\n      jump\t// in\n    tag_209:\n        /* \"#utility.yul\":5115:5254   */\n      swap3\n      swap2\n      pop\n      pop\n      jump\t// out\n        /* \"#utility.yul\":5260:5734   */\n    tag_31:\n        /* \"#utility.yul\":5328:5334   */\n      0x00\n        /* \"#utility.yul\":5336:5342   */\n      dup1\n        /* \"#utility.yul\":5385:5387   */\n      0x40\n        /* \"#utility.yul\":5373:5382   */\n      dup4\n        /* \"#utility.yul\":5364:5371   */\n      dup6\n        /* \"#utility.yul\":5360:5383   */\n      sub\n        /* \"#utility.yul\":5356:5388   */\n      slt\n        /* \"#utility.yul\":5353:5472   */\n      iszero\n      tag_211\n      jumpi\n        /* \"#utility.yul\":5391:5470   */\n      tag_212\n      tag_94\n      jump\t// in\n    tag_212:\n        /* \"#utility.yul\":5353:5472   */\n    tag_211:\n        /* \"#utility.yul\":5511:5512   */\n      0x00\n        /* \"#utility.yul\":5536:5589   */\n      tag_213\n        /* \"#utility.yul\":5581:5588   */\n      dup6\n        /* \"#utility.yul\":5572:5578   */\n      dup3\n        /* \"#utility.yul\":5561:5570   */\n      dup7\n        /* \"#utility.yul\":5557:5579   */\n      add\n        /* \"#utility.yul\":5536:5589   */\n      tag_110\n      jump\t// in\n    tag_213:\n        /* \"#utility.yul\":5526:5589   */\n      swap3\n      pop\n        /* \"#utility.yul\":5482:5599   */\n      pop\n        /* \"#utility.yul\":5638:5640   */\n      0x20\n        /* \"#utility.yul\":5664:5717   */\n      tag_214\n        /* \"#utility.yul\":5709:5716   */\n      dup6\n        /* \"#utility.yul\":5700:5706   */\n      dup3\n        /* \"#utility.yul\":5689:5698   */\n      dup7\n        /* \"#utility.yul\":5685:5707   */\n      add\n        /* \"#utility.yul\":5664:5717   */\n      tag_98\n      jump\t// in\n    tag_214:\n        /* \"#utility.yul\":5654:5717   */\n      swap2\n      pop\n        /* \"#utility.yul\":5609:5727   */\n      pop\n        /* \"#utility.yul\":5260:5734   */\n      swap3\n      pop\n      swap3\n      swap1\n      pop\n      jump\t// out\n        /* \"#utility.yul\":5740:5920   */\n    tag_53:\n        /* \"#utility.yul\":5788:5865   */\n      0x4e487b7100000000000000000000000000000000000000000000000000000000\n        /* \"#utility.yul\":5785:5786   */\n      0x00\n        /* \"#utility.yul\":5778:5866   */\n      mstore\n        /* \"#utility.yul\":5885:5889   */\n      0x21\n        /* \"#utility.yul\":5882:5883   */\n      0x04\n        /* \"#utility.yul\":5875:5890   */\n      mstore\n        /* \"#utility.yul\":5909:5913   */\n      0x24\n        /* \"#utility.yul\":5906:5907   */\n      0x00\n        /* \"#utility.yul\":5899:5914   */\n      revert\n        /* \"#utility.yul\":5926:6050   */\n    tag_111:\n        /* \"#utility.yul\":6018:6019   */\n      0x03\n        /* \"#utility.yul\":6011:6016   */\n      dup2\n        /* \"#utility.yul\":6008:6020   */\n      lt\n        /* \"#utility.yul\":5998:6044   */\n      tag_217\n      jumpi\n        /* \"#utility.yul\":6024:6042   */\n      tag_218\n      tag_53\n      jump\t// in\n    tag_218:\n        /* \"#utility.yul\":5998:6044   */\n    tag_217:\n        /* \"#utility.yul\":5926:6050   */\n      pop\n      jump\t// out\n        /* \"#utility.yul\":6056:6205   */\n    tag_112:\n        /* \"#utility.yul\":6112:6119   */\n      0x00\n        /* \"#utility.yul\":6141:6146   */\n      dup2\n        /* \"#utility.yul\":6130:6146   */\n      swap1\n      pop\n        /* \"#utility.yul\":6147:6199   */\n      tag_220\n        /* \"#utility.yul\":6193:6198   */\n      dup3\n        /* \"#utility.yul\":6147:6199   */\n      tag_111\n      jump\t// in\n    tag_220:\n        /* \"#utility.yul\":6056:6205   */\n      swap2\n      swap1\n      pop\n      jump\t// out\n        /* \"#utility.yul\":6211:6360   */\n    tag_113:\n        /* \"#utility.yul\":6278:6287   */\n      0x00\n        /* \"#utility.yul\":6311:6354   */\n      tag_222\n        /* \"#utility.yul\":6348:6353   */\n      dup3\n        /* \"#utility.yul\":6311:6354   */\n      tag_112\n      jump\t// in\n    tag_222:\n        /* \"#utility.yul\":6298:6354   */\n      swap1\n      pop\n        /* \"#utility.yul\":6211:6360   */\n      swap2\n      swap1\n      pop\n      jump\t// out\n        /* \"#utility.yul\":6366:6531   */\n    tag_114:\n        /* \"#utility.yul\":6470:6524   */\n      tag_224\n        /* \"#utility.yul\":6518:6523   */\n      dup2\n        /* \"#utility.yul\":6470:6524   */\n      tag_113\n      jump\t// in\n    tag_224:\n        /* \"#utility.yul\":6465:6468   */\n      dup3\n        /* \"#utility.yul\":6458:6525   */\n      mstore\n        /* \"#utility.yul\":6366:6531   */\n      pop\n      pop\n      jump\t// out\n        /* \"#utility.yul\":6537:6793   */\n    tag_34:\n        /* \"#utility.yul\":6647:6651   */\n      0x00\n        /* \"#utility.yul\":6685:6687   */\n      0x20\n        /* \"#utility.yul\":6674:6683   */\n      dup3\n        /* \"#utility.yul\":6670:6688   */\n      add\n        /* \"#utility.yul\":6662:6688   */\n      swap1\n      pop\n        /* \"#utility.yul\":6698:6786   */\n      tag_226\n        /* \"#utility.yul\":6783:6784   */\n      0x00\n        /* \"#utility.yul\":6772:6781   */\n      dup4\n        /* \"#utility.yul\":6768:6785   */\n      add\n        /* \"#utility.yul\":6759:6765   */\n      dup5\n        /* \"#utility.yul\":6698:6786   */\n      tag_114\n      jump\t// in\n    tag_226:\n        /* \"#utility.yul\":6537:6793   */\n      swap3\n      swap2\n      pop\n      pop\n      jump\t// out\n        /* \"#utility.yul\":6799:6917   */\n    tag_115:\n        /* \"#utility.yul\":6886:6910   */\n      tag_228\n        /* \"#utility.yul\":6904:6909   */\n      dup2\n        /* \"#utility.yul\":6886:6910   */\n      tag_108\n      jump\t// in\n    tag_228:\n        /* \"#utility.yul\":6881:6884   */\n      dup3\n        /* \"#utility.yul\":6874:6911   */\n      mstore\n        /* \"#utility.yul\":6799:6917   */\n      pop\n      pop\n      jump\t// out\n        /* \"#utility.yul\":6923:7145   */\n    tag_41:\n        /* \"#utility.yul\":7016:7020   */\n      0x00\n        /* \"#utility.yul\":7054:7056   */\n      0x20\n        /* \"#utility.yul\":7043:7052   */\n      dup3\n        /* \"#utility.yul\":7039:7057   */\n      add\n        /* \"#utility.yul\":7031:7057   */\n      swap1\n      pop\n        /* \"#utility.yul\":7067:7138   */\n      tag_230\n        /* \"#utility.yul\":7135:7136   */\n      0x00\n        /* \"#utility.yul\":7124:7133   */\n      dup4\n        /* \"#utility.yul\":7120:7137   */\n      add\n        /* \"#utility.yul\":7111:7117   */\n      dup5\n        /* \"#utility.yul\":7067:7138   */\n      tag_115\n      jump\t// in\n    tag_230:\n        /* \"#utility.yul\":6923:7145   */\n      swap3\n      swap2\n      pop\n      pop\n      jump\t// out\n        /* \"#utility.yul\":7151:7320   */\n    tag_116:\n        /* \"#utility.yul\":7235:7246   */\n      0x00\n        /* \"#utility.yul\":7269:7275   */\n      dup3\n        /* \"#utility.yul\":7264:7267   */\n      dup3\n        /* \"#utility.yul\":7257:7276   */\n      mstore\n        /* \"#utility.yul\":7309:7313   */\n      0x20\n        /* \"#utility.yul\":7304:7307   */\n      dup3\n        /* \"#utility.yul\":7300:7314   */\n      add\n        /* \"#utility.yul\":7285:7314   */\n      swap1\n      pop\n        /* \"#utility.yul\":7151:7320   */\n      swap3\n      swap2\n      pop\n      pop\n      jump\t// out\n        /* \"#utility.yul\":7326:7499   */\n    tag_117:\n        /* \"#utility.yul\":7466:7491   */\n      0x43616d706169676e20646f6573206e6f74206578697374000000000000000000\n        /* \"#utility.yul\":7462:7463   */\n      0x00\n        /* \"#utility.yul\":7454:7460   */\n      dup3\n        /* \"#utility.yul\":7450:7464   */\n      add\n        /* \"#utility.yul\":7443:7492   */\n      mstore\n        /* \"#utility.yul\":7326:7499   */\n      pop\n      jump\t// out\n        /* \"#utility.yul\":7505:7871   */\n    tag_118:\n        /* \"#utility.yul\":7647:7650   */\n      0x00\n        /* \"#utility.yul\":7668:7735   */\n      tag_234\n        /* \"#utility.yul\":7732:7734   */\n      0x17\n        /* \"#utility.yul\":7727:7730   */\n      dup4\n        /* \"#utility.yul\":7668:7735   */\n      tag_116\n      jump\t// in\n    tag_234:\n        /* \"#utility.yul\":7661:7735   */\n      swap2\n      pop\n        /* \"#utility.yul\":7744:7837   */\n      tag_235\n        /* \"#utility.yul\":7833:7836   */\n      dup3\n        /* \"#utility.yul\":7744:7837   */\n      tag_117\n      jump\t// in\n    tag_235:\n        /* \"#utility.yul\":7862:7864   */\n      0x20\n        /* \"#utility.yul\":7857:7860   */\n      dup3\n        /* \"#utility.yul\":7853:7865   */\n      add\n        /* \"#utility.yul\":7846:7865   */\n      swap1\n      pop\n        /* \"#utility.yul\":7505:7871   */\n      swap2\n      swap1\n      pop\n      jump\t// out\n        /* \"#utility.yul\":7877:8296   */\n    tag_45:\n        /* \"#utility.yul\":8043:8047   */\n      0x00\n        /* \"#utility.yul\":8081:8083   */\n      0x20\n        /* \"#utility.yul\":8070:8079   */\n      dup3\n        /* \"#utility.yul\":8066:8084   */\n      add\n        /* \"#utility.yul\":8058:8084   */\n      swap1\n      pop\n        /* \"#utility.yul\":8130:8139   */\n      dup2\n        /* \"#utility.yul\":8124:8128   */\n      dup2\n        /* \"#utility.yul\":8120:8140   */\n      sub\n        /* \"#utility.yul\":8116:8117   */\n      0x00\n        /* \"#utility.yul\":8105:8114   */\n      dup4\n        /* \"#utility.yul\":8101:8118   */\n      add\n        /* \"#utility.yul\":8094:8141   */\n      mstore\n        /* \"#utility.yul\":8158:8289   */\n      tag_237\n        /* \"#utility.yul\":8284:8288   */\n      dup2\n        /* \"#utility.yul\":8158:8289   */\n      tag_118\n      jump\t// in\n    tag_237:\n        /* \"#utility.yul\":8150:8289   */\n      swap1\n      pop\n        /* \"#utility.yul\":7877:8296   */\n      swap2\n      swap1\n      pop\n      jump\t// out\n        /* \"#utility.yul\":8302:8472   */\n    tag_119:\n        /* \"#utility.yul\":8442:8464   */\n      0x517565737420646f6573206e6f74206578697374000000000000000000000000\n        /* \"#utility.yul\":8438:8439   */\n      0x00\n        /* \"#utility.yul\":8430:8436   */\n      dup3\n        /* \"#utility.yul\":8426:8440   */\n      add\n        /* \"#utility.yul\":8419:8465   */\n      mstore\n        /* \"#utility.yul\":8302:8472   */\n      pop\n      jump\t// out\n        /* \"#utility.yul\":8478:8844   */\n    tag_120:\n        /* \"#utility.yul\":8620:8623   */\n      0x00\n        /* \"#utility.yul\":8641:8708   */\n      tag_240\n        /* \"#utility.yul\":8705:8707   */\n      0x14\n        /* \"#utility.yul\":8700:8703   */\n      dup4\n        /* \"#utility.yul\":8641:8708   */\n      tag_116\n      jump\t// in\n    tag_240:\n        /* \"#utility.yul\":8634:8708   */\n      swap2\n      pop\n        /* \"#utility.yul\":8717:8810   */\n      tag_241\n        /* \"#utility.yul\":8806:8809   */\n      dup3\n        /* \"#utility.yul\":8717:8810   */\n      tag_119\n      jump\t// in\n    tag_241:\n        /* \"#utility.yul\":8835:8837   */\n      0x20\n        /* \"#utility.yul\":8830:8833   */\n      dup3\n        /* \"#utility.yul\":8826:8838   */\n      add\n        /* \"#utility.yul\":8819:8838   */\n      swap1\n      pop\n        /* \"#utility.yul\":8478:8844   */\n      swap2\n      swap1\n      pop\n      jump\t// out\n        /* \"#utility.yul\":8850:9269   */\n    tag_49:\n        /* \"#utility.yul\":9016:9020   */\n      0x00\n        /* \"#utility.yul\":9054:9056   */\n      0x20\n        /* \"#utility.yul\":9043:9052   */\n      dup3\n        /* \"#utility.yul\":9039:9057   */\n      add\n        /* \"#utility.yul\":9031:9057   */\n      swap1\n      pop\n        /* \"#utility.yul\":9103:9112   */\n      dup2\n        /* \"#utility.yul\":9097:9101   */\n      dup2\n        /* \"#utility.yul\":9093:9113   */\n      sub\n        /* \"#utility.yul\":9089:9090   */\n      0x00\n        /* \"#utility.yul\":9078:9087   */\n      dup4\n        /* \"#utility.yul\":9074:9091   */\n      add\n        /* \"#utility.yul\":9067:9114   */\n      mstore\n        /* \"#utility.yul\":9131:9262   */\n      tag_243\n        /* \"#utility.yul\":9257:9261   */\n      dup2\n        /* \"#utility.yul\":9131:9262   */\n      tag_120\n      jump\t// in\n    tag_243:\n        /* \"#utility.yul\":9123:9262   */\n      swap1\n      pop\n        /* \"#utility.yul\":8850:9269   */\n      swap2\n      swap1\n      pop\n      jump\t// out\n        /* \"#utility.yul\":9275:9457   */\n    tag_121:\n        /* \"#utility.yul\":9415:9449   */\n      0x506c61796572206d757374206669727374206a6f696e20746865207175657374\n        /* \"#utility.yul\":9411:9412   */\n      0x00\n        /* \"#utility.yul\":9403:9409   */\n      dup3\n        /* \"#utility.yul\":9399:9413   */\n      add\n        /* \"#utility.yul\":9392:9450   */\n      mstore\n        /* \"#utility.yul\":9275:9457   */\n      pop\n      jump\t// out\n        /* \"#utility.yul\":9463:9829   */\n    tag_122:\n        /* \"#utility.yul\":9605:9608   */\n      0x00\n        /* \"#utility.yul\":9626:9693   */\n      tag_246\n        /* \"#utility.yul\":9690:9692   */\n      0x20\n        /* \"#utility.yul\":9685:9688   */\n      dup4\n        /* \"#utility.yul\":9626:9693   */\n      tag_116\n      jump\t// in\n    tag_246:\n        /* \"#utility.yul\":9619:9693   */\n      swap2\n      pop\n        /* \"#utility.yul\":9702:9795   */\n      tag_247\n        /* \"#utility.yul\":9791:9794   */\n      dup3\n        /* \"#utility.yul\":9702:9795   */\n      tag_121\n      jump\t// in\n    tag_247:\n        /* \"#utility.yul\":9820:9822   */\n      0x20\n        /* \"#utility.yul\":9815:9818   */\n      dup3\n        /* \"#utility.yul\":9811:9823   */\n      add\n        /* \"#utility.yul\":9804:9823   */\n      swap1\n      pop\n        /* \"#utility.yul\":9463:9829   */\n      swap2\n      swap1\n      pop\n      jump\t// out\n        /* \"#utility.yul\":9835:10254   */\n    tag_58:\n        /* \"#utility.yul\":10001:10005   */\n      0x00\n        /* \"#utility.yul\":10039:10041   */\n      0x20\n        /* \"#utility.yul\":10028:10037   */\n      dup3\n        /* \"#utility.yul\":10024:10042   */\n      add\n        /* \"#utility.yul\":10016:10042   */\n      swap1\n      pop\n        /* \"#utility.yul\":10088:10097   */\n      dup2\n        /* \"#utility.yul\":10082:10086   */\n      dup2\n        /* \"#utility.yul\":10078:10098   */\n      sub\n        /* \"#utility.yul\":10074:10075   */\n      0x00\n        /* \"#utility.yul\":10063:10072   */\n      dup4\n        /* \"#utility.yul\":10059:10076   */\n      add\n        /* \"#utility.yul\":10052:10099   */\n      mstore\n        /* \"#utility.yul\":10116:10247   */\n      tag_249\n        /* \"#utility.yul\":10242:10246   */\n      dup2\n        /* \"#utility.yul\":10116:10247   */\n      tag_122\n      jump\t// in\n    tag_249:\n        /* \"#utility.yul\":10108:10247   */\n      swap1\n      pop\n        /* \"#utility.yul\":9835:10254   */\n      swap2\n      swap1\n      pop\n      jump\t// out\n        /* \"#utility.yul\":10260:10442   */\n    tag_123:\n        /* \"#utility.yul\":10400:10434   */\n      0x4f6e6c79207468652061646d696e2063616e2063726561746520717565737473\n        /* \"#utility.yul\":10396:10397   */\n      0x00\n        /* \"#utility.yul\":10388:10394   */\n      dup3\n        /* \"#utility.yul\":10384:10398   */\n      add\n        /* \"#utility.yul\":10377:10435   */\n      mstore\n        /* \"#utility.yul\":10260:10442   */\n      pop\n      jump\t// out\n        /* \"#utility.yul\":10448:10814   */\n    tag_124:\n        /* \"#utility.yul\":10590:10593   */\n      0x00\n        /* \"#utility.yul\":10611:10678   */\n      tag_252\n        /* \"#utility.yul\":10675:10677   */\n      0x20\n        /* \"#utility.yul\":10670:10673   */\n      dup4\n        /* \"#utility.yul\":10611:10678   */\n      tag_116\n      jump\t// in\n    tag_252:\n        /* \"#utility.yul\":10604:10678   */\n      swap2\n      pop\n        /* \"#utility.yul\":10687:10780   */\n      tag_253\n        /* \"#utility.yul\":10776:10779   */\n      dup3\n        /* \"#utility.yul\":10687:10780   */\n      tag_123\n      jump\t// in\n    tag_253:\n        /* \"#utility.yul\":10805:10807   */\n      0x20\n        /* \"#utility.yul\":10800:10803   */\n      dup3\n        /* \"#utility.yul\":10796:10808   */\n      add\n        /* \"#utility.yul\":10789:10808   */\n      swap1\n      pop\n        /* \"#utility.yul\":10448:10814   */\n      swap2\n      swap1\n      pop\n      jump\t// out\n        /* \"#utility.yul\":10820:11239   */\n    tag_67:\n        /* \"#utility.yul\":10986:10990   */\n      0x00\n        /* \"#utility.yul\":11024:11026   */\n      0x20\n        /* \"#utility.yul\":11013:11022   */\n      dup3\n        /* \"#utility.yul\":11009:11027   */\n      add\n        /* \"#utility.yul\":11001:11027   */\n      swap1\n      pop\n        /* \"#utility.yul\":11073:11082   */\n      dup2\n        /* \"#utility.yul\":11067:11071   */\n      dup2\n        /* \"#utility.yul\":11063:11083   */\n      sub\n        /* \"#utility.yul\":11059:11060   */\n      0x00\n        /* \"#utility.yul\":11048:11057   */\n      dup4\n        /* \"#utility.yul\":11044:11061   */\n      add\n        /* \"#utility.yul\":11037:11084   */\n      mstore\n        /* \"#utility.yul\":11101:11232   */\n      tag_255\n        /* \"#utility.yul\":11227:11231   */\n      dup2\n        /* \"#utility.yul\":11101:11232   */\n      tag_124\n      jump\t// in\n    tag_255:\n        /* \"#utility.yul\":11093:11232   */\n      swap1\n      pop\n        /* \"#utility.yul\":10820:11239   */\n      swap2\n      swap1\n      pop\n      jump\t// out\n        /* \"#utility.yul\":11245:11342   */\n    tag_125:\n        /* \"#utility.yul\":11304:11310   */\n      0x00\n        /* \"#utility.yul\":11332:11335   */\n      dup3\n        /* \"#utility.yul\":11322:11335   */\n      swap1\n      pop\n        /* \"#utility.yul\":11245:11342   */\n      swap3\n      swap2\n      pop\n      pop\n      jump\t// out\n        /* \"#utility.yul\":11348:11528   */\n    tag_126:\n        /* \"#utility.yul\":11396:11473   */\n      0x4e487b7100000000000000000000000000000000000000000000000000000000\n        /* \"#utility.yul\":11393:11394   */\n      0x00\n        /* \"#utility.yul\":11386:11474   */\n      mstore\n        /* \"#utility.yul\":11493:11497   */\n      0x41\n        /* \"#utility.yul\":11490:11491   */\n      0x04\n        /* \"#utility.yul\":11483:11498   */\n      mstore\n        /* \"#utility.yul\":11517:11521   */\n      0x24\n        /* \"#utility.yul\":11514:11515   */\n      0x00\n        /* \"#utility.yul\":11507:11522   */\n      revert\n        /* \"#utility.yul\":11534:11714   */\n    tag_127:\n        /* \"#utility.yul\":11582:11659   */\n      0x4e487b7100000000000000000000000000000000000000000000000000000000\n        /* \"#utility.yul\":11579:11580   */\n      0x00\n        /* \"#utility.yul\":11572:11660   */\n      mstore\n        /* \"#utility.yul\":11679:11683   */\n      0x22\n        /* \"#utility.yul\":11676:11677   */\n      0x04\n        /* \"#utility.yul\":11669:11684   */\n      mstore\n        /* \"#utility.yul\":11703:11707   */\n      0x24\n        /* \"#utility.yul\":11700:11701   */\n      0x00\n        /* \"#utility.yul\":11693:11708   */\n      revert\n        /* \"#utility.yul\":11720:12040   */\n    tag_128:\n        /* \"#utility.yul\":11764:11770   */\n      0x00\n        /* \"#utility.yul\":11801:11802   */\n      0x02\n        /* \"#utility.yul\":11795:11799   */\n      dup3\n        /* \"#utility.yul\":11791:11803   */\n      div\n        /* \"#utility.yul\":11781:11803   */\n      swap1\n      pop\n        /* \"#utility.yul\":11848:11849   */\n      0x01\n        /* \"#utility.yul\":11842:11846   */\n      dup3\n        /* \"#utility.yul\":11838:11850   */\n      and\n        /* \"#utility.yul\":11869:11887   */\n      dup1\n        /* \"#utility.yul\":11859:11940   */\n      tag_260\n      jumpi\n        /* \"#utility.yul\":11925:11929   */\n      0x7f\n        /* \"#utility.yul\":11917:11923   */\n      dup3\n        /* \"#utility.yul\":11913:11930   */\n      and\n        /* \"#utility.yul\":11903:11930   */\n      swap2\n      pop\n        /* \"#utility.yul\":11859:11940   */\n    tag_260:\n        /* \"#utility.yul\":11987:11989   */\n      0x20\n        /* \"#utility.yul\":11979:11985   */\n      dup3\n        /* \"#utility.yul\":11976:11990   */\n      lt\n        /* \"#utility.yul\":11956:11974   */\n      dup2\n        /* \"#utility.yul\":11953:11991   */\n      sub\n        /* \"#utility.yul\":11950:12034   */\n      tag_261\n      jumpi\n        /* \"#utility.yul\":12006:12024   */\n      tag_262\n      tag_127\n      jump\t// in\n    tag_262:\n        /* \"#utility.yul\":11950:12034   */\n    tag_261:\n        /* \"#utility.yul\":11771:12040   */\n      pop\n        /* \"#utility.yul\":11720:12040   */\n      swap2\n      swap1\n      pop\n      jump\t// out\n        /* \"#utility.yul\":12046:12187   */\n    tag_129:\n        /* \"#utility.yul\":12095:12099   */\n      0x00\n        /* \"#utility.yul\":12118:12121   */\n      dup2\n        /* \"#utility.yul\":12110:12121   */\n      swap1\n      pop\n        /* \"#utility.yul\":12141:12144   */\n      dup2\n        /* \"#utility.yul\":12138:12139   */\n      0x00\n        /* \"#utility.yul\":12131:12145   */\n      mstore\n        /* \"#utility.yul\":12175:12179   */\n      0x20\n        /* \"#utility.yul\":12172:12173   */\n      0x00\n        /* \"#utility.yul\":12162:12180   */\n      keccak256\n        /* \"#utility.yul\":12154:12180   */\n      swap1\n      pop\n        /* \"#utility.yul\":12046:12187   */\n      swap2\n      swap1\n      pop\n      jump\t// out\n        /* \"#utility.yul\":12193:12286   */\n    tag_130:\n        /* \"#utility.yul\":12230:12236   */\n      0x00\n        /* \"#utility.yul\":12277:12279   */\n      0x20\n        /* \"#utility.yul\":12272:12274   */\n      0x1f\n        /* \"#utility.yul\":12265:12270   */\n      dup4\n        /* \"#utility.yul\":12261:12275   */\n      add\n        /* \"#utility.yul\":12257:12280   */\n      div\n        /* \"#utility.yul\":12247:12280   */\n      swap1\n      pop\n        /* \"#utility.yul\":12193:12286   */\n      swap2\n      swap1\n      pop\n      jump\t// out\n        /* \"#utility.yul\":12292:12399   */\n    tag_131:\n        /* \"#utility.yul\":12336:12344   */\n      0x00\n        /* \"#utility.yul\":12386:12391   */\n      dup3\n        /* \"#utility.yul\":12380:12384   */\n      dup3\n        /* \"#utility.yul\":12376:12392   */\n      shl\n        /* \"#utility.yul\":12355:12392   */\n      swap1\n      pop\n        /* \"#utility.yul\":12292:12399   */\n      swap3\n      swap2\n      pop\n      pop\n      jump\t// out\n        /* \"#utility.yul\":12405:12798   */\n    tag_132:\n        /* \"#utility.yul\":12474:12480   */\n      0x00\n        /* \"#utility.yul\":12524:12525   */\n      0x08\n        /* \"#utility.yul\":12512:12522   */\n      dup4\n        /* \"#utility.yul\":12508:12526   */\n      mul\n        /* \"#utility.yul\":12547:12644   */\n      tag_267\n        /* \"#utility.yul\":12577:12643   */\n      0xffffffffffffffffffffffffffffffffffffffffffffffffffffffffffffffff\n        /* \"#utility.yul\":12566:12575   */\n      dup3\n        /* \"#utility.yul\":12547:12644   */\n      tag_131\n      jump\t// in\n    tag_267:\n        /* \"#utility.yul\":12665:12704   */\n      tag_268\n        /* \"#utility.yul\":12695:12703   */\n      dup7\n        /* \"#utility.yul\":12684:12693   */\n      dup4\n        /* \"#utility.yul\":12665:12704   */\n      tag_131\n      jump\t// in\n    tag_268:\n        /* \"#utility.yul\":12653:12704   */\n      swap6\n      pop\n        /* \"#utility.yul\":12737:12741   */\n      dup1\n        /* \"#utility.yul\":12733:12742   */\n      not\n        /* \"#utility.yul\":12726:12731   */\n      dup5\n        /* \"#utility.yul\":12722:12743   */\n      and\n        /* \"#utility.yul\":12713:12743   */\n      swap4\n      pop\n        /* \"#utility.yul\":12786:12790   */\n      dup1\n        /* \"#utility.yul\":12776:12784   */\n      dup7\n        /* \"#utility.yul\":12772:12791   */\n      and\n        /* \"#utility.yul\":12765:12770   */\n      dup5\n        /* \"#utility.yul\":12762:12792   */\n      or\n        /* \"#utility.yul\":12752:12792   */\n      swap3\n      pop\n        /* \"#utility.yul\":12481:12798   */\n      pop\n      pop\n        /* \"#utility.yul\":12405:12798   */\n      swap4\n      swap3\n      pop\n      pop\n      pop\n      jump\t// out\n        /* \"#utility.yul\":12804:12864   */\n    tag_133:\n        /* \"#utility.yul\":12832:12835   */\n      0x00\n        /* \"#utility.yul\":12853:12858   */\n      dup2\n        /* \"#utility.yul\":12846:12858   */\n      swap1\n      pop\n        /* \"#utility.yul\":12804:12864   */\n      swap2\n      swap1\n      pop\n      jump\t// out\n        /* \"#utility.yul\":12870:13012   */\n    tag_134:\n        /* \"#utility.yul\":12920:12929   */\n      0x00\n        /* \"#utility.yul\":12953:13006   */\n      tag_271\n        /* \"#utility.yul\":12971:13005   */\n      tag_272\n        /* \"#utility.yul\":12980:13004   */\n      tag_273\n        /* \"#utility.yul\":12998:13003   */\n      dup5\n        /* \"#utility.yul\":12980:13004   */\n      tag_96\n      jump\t// in\n    tag_273:\n        /* \"#utility.yul\":12971:13005   */\n      tag_133\n      jump\t// in\n    tag_272:\n        /* \"#utility.yul\":12953:13006   */\n      tag_96\n      jump\t// in\n    tag_271:\n        /* \"#utility.yul\":12940:13006   */\n      swap1\n      pop\n        /* \"#utility.yul\":12870:13012   */\n      swap2\n      swap1\n      pop\n      jump\t// out\n        /* \"#utility.yul\":13018:13093   */\n    tag_135:\n        /* \"#utility.yul\":13061:13064   */\n      0x00\n        /* \"#utility.yul\":13082:13087   */\n      dup2\n        /* \"#utility.yul\":13075:13087   */\n      swap1\n      pop\n        /* \"#utility.yul\":13018:13093   */\n      swap2\n      swap1\n      pop\n      jump\t// out\n        /* \"#utility.yul\":13099:13368   */\n    tag_136:\n        /* \"#utility.yul\":13209:13248   */\n      tag_276\n        /* \"#utility.yul\":13240:13247   */\n      dup4\n        /* \"#utility.yul\":13209:13248   */\n      tag_134\n      jump\t// in\n    tag_276:\n        /* \"#utility.yul\":13270:13361   */\n      tag_277\n        /* \"#utility.yul\":13319:13360   */\n      tag_278\n        /* \"#utility.yul\":13343:13359   */\n      dup3\n        /* \"#utility.yul\":13319:13360   */\n      tag_135\n      jump\t// in\n    tag_278:\n        /* \"#utility.yul\":13311:13317   */\n      dup5\n        /* \"#utility.yul\":13304:13308   */\n      dup5\n        /* \"#utility.yul\":13298:13309   */\n      sload\n        /* \"#utility.yul\":13270:13361   */\n      tag_132\n      jump\t// in\n    tag_277:\n        /* \"#utility.yul\":13264:13268   */\n      dup3\n        /* \"#utility.yul\":13257:13362   */\n      sstore\n        /* \"#utility.yul\":13175:13368   */\n      pop\n        /* \"#utility.yul\":13099:13368   */\n      pop\n      pop\n      pop\n      jump\t// out\n        /* \"#utility.yul\":13374:13447   */\n    tag_137:\n        /* \"#utility.yul\":13419:13422   */\n      0x00\n        /* \"#utility.yul\":13374:13447   */\n      swap1\n      jump\t// out\n        /* \"#utility.yul\":13453:13642   */\n    tag_138:\n        /* \"#utility.yul\":13530:13562   */\n      tag_281\n      tag_137\n      jump\t// in\n    tag_281:\n        /* \"#utility.yul\":13571:13636   */\n      tag_282\n        /* \"#utility.yul\":13629:13635   */\n      dup2\n        /* \"#utility.yul\":13621:13627   */\n      dup5\n        /* \"#utility.yul\":13615:13619   */\n      dup5\n        /* \"#utility.yul\":13571:13636   */\n      tag_136\n      jump\t// in\n    tag_282:\n        /* \"#utility.yul\":13506:13642   */\n      pop\n        /* \"#utility.yul\":13453:13642   */\n      pop\n      pop\n      jump\t// out\n        /* \"#utility.yul\":13648:13834   */\n    tag_139:\n        /* \"#utility.yul\":13708:13828   */\n    tag_284:\n        /* \"#utility.yul\":13725:13728   */\n      dup2\n        /* \"#utility.yul\":13718:13723   */\n      dup2\n        /* \"#utility.yul\":13715:13729   */\n      lt\n        /* \"#utility.yul\":13708:13828   */\n      iszero\n      tag_286\n      jumpi\n        /* \"#utility.yul\":13779:13818   */\n      tag_287\n        /* \"#utility.yul\":13816:13817   */\n      0x00\n        /* \"#utility.yul\":13809:13814   */\n      dup3\n        /* \"#utility.yul\":13779:13818   */\n      tag_138\n      jump\t// in\n    tag_287:\n        /* \"#utility.yul\":13752:13753   */\n      0x01\n        /* \"#utility.yul\":13745:13750   */\n      dup2\n        /* \"#utility.yul\":13741:13754   */\n      add\n        /* \"#utility.yul\":13732:13754   */\n      swap1\n      pop\n        /* \"#utility.yul\":13708:13828   */\n      jump(tag_284)\n    tag_286:\n        /* \"#utility.yul\":13648:13834   */\n      pop\n      pop\n      jump\t// out\n        /* \"#utility.yul\":13840:14383   */\n    tag_140:\n        /* \"#utility.yul\":13941:13943   */\n      0x1f\n        /* \"#utility.yul\":13936:13939   */\n      dup3\n        /* \"#utility.yul\":13933:13944   */\n      gt\n        /* \"#utility.yul\":13930:14376   */\n      iszero\n      tag_289\n      jumpi\n        /* \"#utility.yul\":13975:14013   */\n      tag_290\n        /* \"#utility.yul\":14007:14012   */\n      dup2\n        /* \"#utility.yul\":13975:14013   */\n      tag_129\n      jump\t// in\n    tag_290:\n        /* \"#utility.yul\":14059:14088   */\n      tag_291\n        /* \"#utility.yul\":14077:14087   */\n      dup5\n        /* \"#utility.yul\":14059:14088   */\n      tag_130\n      jump\t// in\n    tag_291:\n        /* \"#utility.yul\":14049:14057   */\n      dup2\n        /* \"#utility.yul\":14045:14089   */\n      add\n        /* \"#utility.yul\":14242:14244   */\n      0x20\n        /* \"#utility.yul\":14230:14240   */\n      dup6\n        /* \"#utility.yul\":14227:14245   */\n      lt\n        /* \"#utility.yul\":14224:14273   */\n      iszero\n      tag_292\n      jumpi\n        /* \"#utility.yul\":14263:14271   */\n      dup2\n        /* \"#utility.yul\":14248:14271   */\n      swap1\n      pop\n        /* \"#utility.yul\":14224:14273   */\n    tag_292:\n        /* \"#utility.yul\":14286:14366   */\n      tag_293\n        /* \"#utility.yul\":14342:14364   */\n      tag_294\n        /* \"#utility.yul\":14360:14363   */\n      dup6\n        /* \"#utility.yul\":14342:14364   */\n      tag_130\n      jump\t// in\n    tag_294:\n        /* \"#utility.yul\":14332:14340   */\n      dup4\n        /* \"#utility.yul\":14328:14365   */\n      add\n        /* \"#utility.yul\":14315:14326   */\n      dup3\n        /* \"#utility.yul\":14286:14366   */\n      tag_139\n      jump\t// in\n    tag_293:\n        /* \"#utility.yul\":13945:14376   */\n      pop\n      pop\n        /* \"#utility.yul\":13930:14376   */\n    tag_289:\n        /* \"#utility.yul\":13840:14383   */\n      pop\n      pop\n      pop\n      jump\t// out\n        /* \"#utility.yul\":14389:14506   */\n    tag_141:\n        /* \"#utility.yul\":14443:14451   */\n      0x00\n        /* \"#utility.yul\":14493:14498   */\n      dup3\n        /* \"#utility.yul\":14487:14491   */\n      dup3\n        /* \"#utility.yul\":14483:14499   */\n      shr\n        /* \"#utility.yul\":14462:14499   */\n      swap1\n      pop\n        /* \"#utility.yul\":14389:14506   */\n      swap3\n      swap2\n      pop\n      pop\n      jump\t// out\n        /* \"#utility.yul\":14512:14681   */\n    tag_142:\n        /* \"#utility.yul\":14556:14562   */\n      0x00\n        /* \"#utility.yul\":14589:14640   */\n      tag_297\n        /* \"#utility.yul\":14637:14638   */\n      0x00\n        /* \"#utility.yul\":14633:14639   */\n      not\n        /* \"#utility.yul\":14625:14630   */\n      dup5\n        /* \"#utility.yul\":14622:14623   */\n      0x08\n        /* \"#utility.yul\":14618:14631   */\n      mul\n        /* \"#utility.yul\":14589:14640   */\n      tag_141\n      jump\t// in\n    tag_297:\n        /* \"#utility.yul\":14585:14641   */\n      not\n        /* \"#utility.yul\":14670:14674   */\n      dup1\n        /* \"#utility.yul\":14664:14668   */\n      dup4\n        /* \"#utility.yul\":14660:14675   */\n      and\n        /* \"#utility.yul\":14650:14675   */\n      swap2\n      pop\n        /* \"#utility.yul\":14563:14681   */\n      pop\n        /* \"#utility.yul\":14512:14681   */\n      swap3\n      swap2\n      pop\n      pop\n      jump\t// out\n        /* \"#utility.yul\":14686:14981   */\n    tag_143:\n        /* \"#utility.yul\":14762:14766   */\n      0x00\n        /* \"#utility.yul\":14908:14937   */\n      tag_299\n        /* \"#utility.yul\":14933:14936   */\n      dup4\n        /* \"#utility.yul\":14927:14931   */\n      dup4\n        /* \"#utility.yul\":14908:14937   */\n      tag_142\n      jump\t// in\n    tag_299:\n        /* \"#utility.yul\":14900:14937   */\n      swap2\n      pop\n        /* \"#utility.yul\":14970:14973   */\n      dup3\n        /* \"#utility.yul\":14967:14968   */\n      0x02\n        /* \"#utility.yul\":14963:14974   */\n      mul\n        /* \"#utility.yul\":14957:14961   */\n      dup3\n        /* \"#utility.yul\":14954:14975   */\n      or\n        /* \"#utility.yul\":14946:14975   */\n      swap1\n      pop\n        /* \"#utility.yul\":14686:14981   */\n      swap3\n      swap2\n      pop\n      pop\n      jump\t// out\n        /* \"#utility.yul\":14986:16389   */\n    tag_69:\n        /* \"#utility.yul\":15110:15154   */\n      tag_301\n        /* \"#utility.yul\":15150:15153   */\n      dup4\n        /* \"#utility.yul\":15145:15148   */\n      dup4\n        /* \"#utility.yul\":15110:15154   */\n      tag_125\n      jump\t// in\n    tag_301:\n        /* \"#utility.yul\":15219:15237   */\n      0xffffffffffffffff\n        /* \"#utility.yul\":15211:15217   */\n      dup2\n        /* \"#utility.yul\":15208:15238   */\n      gt\n        /* \"#utility.yul\":15205:15261   */\n      iszero\n      tag_302\n      jumpi\n        /* \"#utility.yul\":15241:15259   */\n      tag_303\n      tag_126\n      jump\t// in\n    tag_303:\n        /* \"#utility.yul\":15205:15261   */\n    tag_302:\n        /* \"#utility.yul\":15285:15323   */\n      tag_304\n        /* \"#utility.yul\":15317:15321   */\n      dup3\n        /* \"#utility.yul\":15311:15322   */\n      sload\n        /* \"#utility.yul\":15285:15323   */\n      tag_128\n      jump\t// in\n    tag_304:\n        /* \"#utility.yul\":15370:15437   */\n      tag_305\n        /* \"#utility.yul\":15430:15436   */\n      dup3\n        /* \"#utility.yul\":15422:15428   */\n      dup3\n        /* \"#utility.yul\":15416:15420   */\n      dup6\n        /* \"#utility.yul\":15370:15437   */\n      tag_140\n      jump\t// in\n    tag_305:\n        /* \"#utility.yul\":15464:15465   */\n      0x00\n        /* \"#utility.yul\":15493:15495   */\n      0x1f\n        /* \"#utility.yul\":15485:15491   */\n      dup4\n        /* \"#utility.yul\":15482:15496   */\n      gt\n        /* \"#utility.yul\":15510:15511   */\n      0x01\n        /* \"#utility.yul\":15505:16137   */\n      dup2\n      eq\n      tag_307\n      jumpi\n        /* \"#utility.yul\":16181:16182   */\n      0x00\n        /* \"#utility.yul\":16198:16204   */\n      dup5\n        /* \"#utility.yul\":16195:16279   */\n      iszero\n      tag_308\n      jumpi\n        /* \"#utility.yul\":16254:16263   */\n      dup3\n        /* \"#utility.yul\":16249:16252   */\n      dup8\n        /* \"#utility.yul\":16245:16264   */\n      add\n        /* \"#utility.yul\":16232:16265   */\n      calldataload\n        /* \"#utility.yul\":16223:16265   */\n      swap1\n      pop\n        /* \"#utility.yul\":16195:16279   */\n    tag_308:\n        /* \"#utility.yul\":16305:16372   */\n      tag_309\n        /* \"#utility.yul\":16365:16371   */\n      dup6\n        /* \"#utility.yul\":16358:16363   */\n      dup3\n        /* \"#utility.yul\":16305:16372   */\n      tag_143\n      jump\t// in\n    tag_309:\n        /* \"#utility.yul\":16299:16303   */\n      dup7\n        /* \"#utility.yul\":16292:16373   */\n      sstore\n        /* \"#utility.yul\":16154:16383   */\n      pop\n        /* \"#utility.yul\":15475:16383   */\n      jump(tag_306)\n        /* \"#utility.yul\":15505:16137   */\n    tag_307:\n        /* \"#utility.yul\":15557:15561   */\n      0x1f\n        /* \"#utility.yul\":15553:15562   */\n      not\n        /* \"#utility.yul\":15545:15551   */\n      dup5\n        /* \"#utility.yul\":15541:15563   */\n      and\n        /* \"#utility.yul\":15591:15628   */\n      tag_310\n        /* \"#utility.yul\":15623:15627   */\n      dup7\n        /* \"#utility.yul\":15591:15628   */\n      tag_129\n      jump\t// in\n    tag_310:\n        /* \"#utility.yul\":15650:15651   */\n      0x00\n        /* \"#utility.yul\":15664:15879   */\n    tag_311:\n        /* \"#utility.yul\":15678:15685   */\n      dup3\n        /* \"#utility.yul\":15675:15676   */\n      dup2\n        /* \"#utility.yul\":15672:15686   */\n      lt\n        /* \"#utility.yul\":15664:15879   */\n      iszero\n      tag_313\n      jumpi\n        /* \"#utility.yul\":15764:15773   */\n      dup5\n        /* \"#utility.yul\":15759:15762   */\n      dup10\n        /* \"#utility.yul\":15755:15774   */\n      add\n        /* \"#utility.yul\":15742:15775   */\n      calldataload\n        /* \"#utility.yul\":15734:15740   */\n      dup3\n        /* \"#utility.yul\":15727:15776   */\n      sstore\n        /* \"#utility.yul\":15815:15816   */\n      0x01\n        /* \"#utility.yul\":15807:15813   */\n      dup3\n        /* \"#utility.yul\":15803:15817   */\n      add\n        /* \"#utility.yul\":15793:15817   */\n      swap2\n      pop\n        /* \"#utility.yul\":15862:15864   */\n      0x20\n        /* \"#utility.yul\":15851:15860   */\n      dup6\n        /* \"#utility.yul\":15847:15865   */\n      add\n        /* \"#utility.yul\":15834:15865   */\n      swap5\n      pop\n        /* \"#utility.yul\":15701:15705   */\n      0x20\n        /* \"#utility.yul\":15698:15699   */\n      dup2\n        /* \"#utility.yul\":15694:15706   */\n      add\n        /* \"#utility.yul\":15689:15706   */\n      swap1\n      pop\n        /* \"#utility.yul\":15664:15879   */\n      jump(tag_311)\n    tag_313:\n        /* \"#utility.yul\":15907:15913   */\n      dup7\n        /* \"#utility.yul\":15898:15905   */\n      dup4\n        /* \"#utility.yul\":15895:15914   */\n      lt\n        /* \"#utility.yul\":15892:16078   */\n      iszero\n      tag_314\n      jumpi\n        /* \"#utility.yul\":15972:15981   */\n      dup5\n        /* \"#utility.yul\":15967:15970   */\n      dup10\n        /* \"#utility.yul\":15963:15982   */\n      add\n        /* \"#utility.yul\":15950:15983   */\n      calldataload\n        /* \"#utility.yul\":16015:16063   */\n      tag_315\n        /* \"#utility.yul\":16057:16061   */\n      0x1f\n        /* \"#utility.yul\":16049:16055   */\n      dup10\n        /* \"#utility.yul\":16045:16062   */\n      and\n        /* \"#utility.yul\":16034:16043   */\n      dup3\n        /* \"#utility.yul\":16015:16063   */\n      tag_142\n      jump\t// in\n    tag_315:\n        /* \"#utility.yul\":16007:16013   */\n      dup4\n        /* \"#utility.yul\":16000:16064   */\n      sstore\n        /* \"#utility.yul\":15915:16078   */\n      pop\n        /* \"#utility.yul\":15892:16078   */\n    tag_314:\n        /* \"#utility.yul\":16124:16125   */\n      0x01\n        /* \"#utility.yul\":16120:16121   */\n      0x02\n        /* \"#utility.yul\":16112:16118   */\n      dup9\n        /* \"#utility.yul\":16108:16122   */\n      mul\n        /* \"#utility.yul\":16104:16126   */\n      add\n        /* \"#utility.yul\":16098:16102   */\n      dup9\n        /* \"#utility.yul\":16091:16127   */\n      sstore\n        /* \"#utility.yul\":15512:16137   */\n      pop\n      pop\n      pop\n        /* \"#utility.yul\":15475:16383   */\n    tag_306:\n      pop\n        /* \"#utility.yul\":15085:16389   */\n      pop\n      pop\n      pop\n        /* \"#utility.yul\":14986:16389   */\n      pop\n      pop\n      pop\n      jump\t// out\n        /* \"#utility.yul\":16395:16575   */\n    tag_144:\n        /* \"#utility.yul\":16443:16520   */\n      0x4e487b7100000000000000000000000000000000000000000000000000000000\n        /* \"#utility.yul\":16440:16441   */\n      0x00\n        /* \"#utility.yul\":16433:16521   */\n      mstore\n        /* \"#utility.yul\":16540:16544   */\n      0x11\n        /* \"#utility.yul\":16537:16538   */\n      0x04\n        /* \"#utility.yul\":16530:16545   */\n      mstore\n        /* \"#utility.yul\":16564:16568   */\n      0x24\n        /* \"#utility.yul\":16561:16562   */\n      0x00\n        /* \"#utility.yul\":16554:16569   */\n      revert\n        /* \"#utility.yul\":16581:16814   */\n    tag_71:\n        /* \"#utility.yul\":16620:16623   */\n      0x00\n        /* \"#utility.yul\":16643:16667   */\n      tag_318\n        /* \"#utility.yul\":16661:16666   */\n      dup3\n        /* \"#utility.yul\":16643:16667   */\n      tag_96\n      jump\t// in\n    tag_318:\n        /* \"#utility.yul\":16634:16667   */\n      swap2\n      pop\n        /* \"#utility.yul\":16689:16755   */\n      0xffffffffffffffffffffffffffffffffffffffffffffffffffffffffffffffff\n        /* \"#utility.yul\":16682:16687   */\n      dup3\n        /* \"#utility.yul\":16679:16756   */\n      sub\n        /* \"#utility.yul\":16676:16779   */\n      tag_319\n      jumpi\n        /* \"#utility.yul\":16759:16777   */\n      tag_320\n      tag_144\n      jump\t// in\n    tag_320:\n        /* \"#utility.yul\":16676:16779   */\n    tag_319:\n        /* \"#utility.yul\":16806:16807   */\n      0x01\n        /* \"#utility.yul\":16799:16804   */\n      dup3\n        /* \"#utility.yul\":16795:16808   */\n      add\n        /* \"#utility.yul\":16788:16808   */\n      swap1\n      pop\n        /* \"#utility.yul\":16581:16814   */\n      swap2\n      swap1\n      pop\n      jump\t// out\n        /* \"#utility.yul\":16820:17053   */\n    tag_145:\n        /* \"#utility.yul\":16960:16994   */\n      0x506c617965722068617320616c7265616479206a6f696e65642f7375626d6974\n        /* \"#utility.yul\":16956:16957   */\n      0x00\n        /* \"#utility.yul\":16948:16954   */\n      dup3\n        /* \"#utility.yul\":16944:16958   */\n      add\n        /* \"#utility.yul\":16937:16995   */\n      mstore\n        /* \"#utility.yul\":17029:17045   */\n      0x7465642074686973207175657374000000000000000000000000000000000000\n        /* \"#utility.yul\":17024:17026   */\n      0x20\n        /* \"#utility.yul\":17016:17022   */\n      dup3\n        /* \"#utility.yul\":17012:17027   */\n      add\n        /* \"#utility.yul\":17005:17046   */\n      mstore\n        /* \"#utility.yul\":16820:17053   */\n      pop\n      jump\t// out\n        /* \"#utility.yul\":17059:17425   */\n    tag_146:\n        /* \"#utility.yul\":17201:17204   */\n      0x00\n        /* \"#utility.yul\":17222:17289   */\n      tag_323\n        /* \"#utility.yul\":17286:17288   */\n      0x2e\n        /* \"#utility.yul\":17281:17284   */\n      dup4\n        /* \"#utility.yul\":17222:17289   */\n      tag_116\n      jump\t// in\n    tag_323:\n        /* \"#utility.yul\":17215:17289   */\n      swap2\n      pop\n        /* \"#utility.yul\":17298:17391   */\n      tag_324\n        /* \"#utility.yul\":17387:17390   */\n      dup3\n        /* \"#utility.yul\":17298:17391   */\n      tag_145\n      jump\t// in\n    tag_324:\n        /* \"#utility.yul\":17416:17418   */\n      0x40\n        /* \"#utility.yul\":17411:17414   */\n      dup3\n        /* \"#utility.yul\":17407:17419   */\n      add\n        /* \"#utility.yul\":17400:17419   */\n      swap1\n      pop\n        /* \"#utility.yul\":17059:17425   */\n      swap2\n      swap1\n      pop\n      jump\t// out\n        /* \"#utility.yul\":17431:17850   */\n    tag_85:\n        /* \"#utility.yul\":17597:17601   */\n      0x00\n        /* \"#utility.yul\":17635:17637   */\n      0x20\n        /* \"#utility.yul\":17624:17633   */\n      dup3\n        /* \"#utility.yul\":17620:17638   */\n      add\n        /* \"#utility.yul\":17612:17638   */\n      swap1\n      pop\n        /* \"#utility.yul\":17684:17693   */\n      dup2\n        /* \"#utility.yul\":17678:17682   */\n      dup2\n        /* \"#utility.yul\":17674:17694   */\n      sub\n        /* \"#utility.yul\":17670:17671   */\n      0x00\n        /* \"#utility.yul\":17659:17668   */\n      dup4\n        /* \"#utility.yul\":17655:17672   */\n      add\n        /* \"#utility.yul\":17648:17695   */\n      mstore\n        /* \"#utility.yul\":17712:17843   */\n      tag_326\n        /* \"#utility.yul\":17838:17842   */\n      dup2\n        /* \"#utility.yul\":17712:17843   */\n      tag_146\n      jump\t// in\n    tag_326:\n        /* \"#utility.yul\":17704:17843   */\n      swap1\n      pop\n        /* \"#utility.yul\":17431:17850   */\n      swap2\n      swap1\n      pop\n      jump\t// out\n        /* \"#utility.yul\":17856:18035   */\n    tag_147:\n        /* \"#utility.yul\":17996:18027   */\n      0x5175657374206973206e6f742063757272656e746c7920616374697665000000\n        /* \"#utility.yul\":17992:17993   */\n      0x00\n        /* \"#utility.yul\":17984:17990   */\n      dup3\n        /* \"#utility.yul\":17980:17994   */\n      add\n        /* \"#utility.yul\":17973:18028   */\n      mstore\n        /* \"#utility.yul\":17856:18035   */\n      pop\n      jump\t// out\n        /* \"#utility.yul\":18041:18407   */\n    tag_148:\n        /* \"#utility.yul\":18183:18186   */\n      0x00\n        /* \"#utility.yul\":18204:18271   */\n      tag_329\n        /* \"#utility.yul\":18268:18270   */\n      0x1d\n        /* \"#utility.yul\":18263:18266   */\n      dup4\n        /* \"#utility.yul\":18204:18271   */\n      tag_116\n      jump\t// in\n    tag_329:\n        /* \"#utility.yul\":18197:18271   */\n      swap2\n      pop\n        /* \"#utility.yul\":18280:18373   */\n      tag_330\n        /* \"#utility.yul\":18369:18372   */\n      dup3\n        /* \"#utility.yul\":18280:18373   */\n      tag_147\n      jump\t// in\n    tag_330:\n        /* \"#utility.yul\":18398:18400   */\n      0x20\n        /* \"#utility.yul\":18393:18396   */\n      dup3\n        /* \"#utility.yul\":18389:18401   */\n      add\n        /* \"#utility.yul\":18382:18401   */\n      swap1\n      pop\n        /* \"#utility.yul\":18041:18407   */\n      swap2\n      swap1\n      pop\n      jump\t// out\n        /* \"#utility.yul\":18413:18832   */\n    tag_89:\n        /* \"#utility.yul\":18579:18583   */\n      0x00\n        /* \"#utility.yul\":18617:18619   */\n      0x20\n        /* \"#utility.yul\":18606:18615   */\n      dup3\n        /* \"#utility.yul\":18602:18620   */\n      add\n        /* \"#utility.yul\":18594:18620   */\n      swap1\n      pop\n        /* \"#utility.yul\":18666:18675   */\n      dup2\n        /* \"#utility.yul\":18660:18664   */\n      dup2\n        /* \"#utility.yul\":18656:18676   */\n      sub\n        /* \"#utility.yul\":18652:18653   */\n      0x00\n        /* \"#utility.yul\":18641:18650   */\n      dup4\n        /* \"#utility.yul\":18637:18654   */\n      add\n        /* \"#utility.yul\":18630:18677   */\n      mstore\n        /* \"#utility.yul\":18694:18825   */\n      tag_332\n        /* \"#utility.yul\":18820:18824   */\n      dup2\n        /* \"#utility.yul\":18694:18825   */\n      tag_148\n      jump\t// in\n    tag_332:\n        /* \"#utility.yul\":18686:18825   */\n      swap1\n      pop\n        /* \"#utility.yul\":18413:18832   */\n      swap2\n      swap1\n      pop\n      jump\t// out\n\n    auxdata: 0xa2646970667358221220b173d359a99762dbe6c6bda64157e7282bb38b74d933c5a3aad8ba732e703bf964736f6c63430008120033\n}\n",
				"bytecode": {
					"linkReferences": {},
					"object": "608060405234801561001057600080fd5b50336000806101000a81548173ffffffffffffffffffffffffffffffffffffffff021916908373ffffffffffffffffffffffffffffffffffffffff160217905550611303806100606000396000f3fe608060405234801561001057600080fd5b506004361061007d5760003560e01c80638c58689b1161005b5780638c58689b146100ed57806399f7358c14610109578063d514481714610139578063f851a440146101555761007d565b8063017bbaec14610082578063141961bc1461009e5780637903a756146100cf575b600080fd5b61009c6004803603810190610097919061091a565b610173565b005b6100b860048036038101906100b3919061095a565b610390565b6040516100c6929190610996565b60405180910390f35b6100d76103b4565b6040516100e491906109bf565b60405180910390f35b61010760048036038101906101029190610a78565b6103ba565b005b610123600480360381019061011e9190610b85565b6105c7565b6040516101309190610c3c565b60405180910390f35b610153600480360381019061014e919061091a565b6105f6565b005b61015d6108b6565b60405161016a9190610c66565b60405180910390f35b8160006001600083815260200190815260200160002060020154116101cd576040517f08c379a00000000000000000000000000000000000000000000000000000000081526004016101c490610cde565b60405180910390fd5b8282600060016000848152602001908152602001600020600101600083815260200190815260200160002060030160009054906101000a900460ff1660ff160361024c576040517f08c379a000000000000000000000000000000000000000000000000000000000815260040161024390610d4a565b60405180910390fd5b600160028111156102605761025f610bc5565b5b600360003373ffffffffffffffffffffffffffffffffffffffff1673ffffffffffffffffffffffffffffffffffffffff168152602001908152602001600020600086815260200190815260200160002060009054906101000a900460ff1660028111156102d0576102cf610bc5565b5b14610310576040517f08c379a000000000000000000000000000000000000000000000000000000000815260040161030790610db6565b60405180910390fd5b6002600360003373ffffffffffffffffffffffffffffffffffffffff1673ffffffffffffffffffffffffffffffffffffffff168152602001908152602001600020600086815260200190815260200160002060006101000a81548160ff0219169083600281111561038457610383610bc5565b5b02179055505050505050565b60016020528060005260406000206000915090508060000154908060020154905082565b60025481565b866000600160008381526020019081526020016000206002015411610414576040517f08c379a000000000000000000000000000000000000000000000000000000000815260040161040b90610cde565b60405180910390fd5b60008054906101000a900473ffffffffffffffffffffffffffffffffffffffff1673ffffffffffffffffffffffffffffffffffffffff163373ffffffffffffffffffffffffffffffffffffffff16146104a2576040517f08c379a000000000000000000000000000000000000000000000000000000000815260040161049990610e22565b60405180910390fd5b6000600160008a81526020019081526020016000209050806002015481600101600083600201548152602001908152602001600020600001819055508787826001016000846002015481526020019081526020016000206002019182610509929190611088565b50858160010160008360020154815260200190815260200160002060030160006101000a81548160ff021916908360ff1602179055508481600101600083600201548152602001908152602001600020600401819055508381600101600083600201548152602001908152602001600020600501819055508281600101600083600201548152602001908152602001600020600601819055508060020160008154809291906105b790611187565b9190505550505050505050505050565b60036020528160005260406000206020528060005260406000206000915091509054906101000a900460ff1681565b816000600160008381526020019081526020016000206002015411610650576040517f08c379a000000000000000000000000000000000000000000000000000000000815260040161064790610cde565b60405180910390fd5b8282600060016000848152602001908152602001600020600101600083815260200190815260200160002060030160009054906101000a900460ff1660ff16036106cf576040517f08c379a00000000000000000000000000000000000000000000000000000000081526004016106c690610d4a565b60405180910390fd5b600060028111156106e3576106e2610bc5565b5b600360003373ffffffffffffffffffffffffffffffffffffffff1673ffffffffffffffffffffffffffffffffffffffff168152602001908152602001600020600086815260200190815260200160002060009054906101000a900460ff16600281111561075357610752610bc5565b5b14610793576040517f08c379a000000000000000000000000000000000000000000000000000000000815260040161078a90611241565b60405180910390fd5b600060016000878152602001908152602001600020905060008160010160008781526020019081526020016000209050806005015442101580156107db575080600601544211155b61081a576040517f08c379a0000000000000000000000000000000000000000000000000000000008152600401610811906112ad565b60405180910390fd5b6001600360003373ffffffffffffffffffffffffffffffffffffffff1673ffffffffffffffffffffffffffffffffffffffff168152602001908152602001600020600088815260200190815260200160002060006101000a81548160ff0219169083600281111561088e5761088d610bc5565b5b02179055508060010160008154809291906108a890611187565b919050555050505050505050565b60008054906101000a900473ffffffffffffffffffffffffffffffffffffffff1681565b600080fd5b600080fd5b6000819050919050565b6108f7816108e4565b811461090257600080fd5b50565b600081359050610914816108ee565b92915050565b60008060408385031215610931576109306108da565b5b600061093f85828601610905565b925050602061095085828601610905565b9150509250929050565b6000602082840312156109705761096f6108da565b5b600061097e84828501610905565b91505092915050565b610990816108e4565b82525050565b60006040820190506109ab6000830185610987565b6109b86020830184610987565b9392505050565b60006020820190506109d46000830184610987565b92915050565b600080fd5b600080fd5b600080fd5b60008083601f8401126109ff576109fe6109da565b5b8235905067ffffffffffffffff811115610a1c57610a1b6109df565b5b602083019150836001820283011115610a3857610a376109e4565b5b9250929050565b600060ff82169050919050565b610a5581610a3f565b8114610a6057600080fd5b50565b600081359050610a7281610a4c565b92915050565b600080600080600080600060c0888a031215610a9757610a966108da565b5b6000610aa58a828b01610905565b975050602088013567ffffffffffffffff811115610ac657610ac56108df565b5b610ad28a828b016109e9565b96509650506040610ae58a828b01610a63565b9450506060610af68a828b01610905565b9350506080610b078a828b01610905565b92505060a0610b188a828b01610905565b91505092959891949750929550565b600073ffffffffffffffffffffffffffffffffffffffff82169050919050565b6000610b5282610b27565b9050919050565b610b6281610b47565b8114610b6d57600080fd5b50565b600081359050610b7f81610b59565b92915050565b60008060408385031215610b9c57610b9b6108da565b5b6000610baa85828601610b70565b9250506020610bbb85828601610905565b9150509250929050565b7f4e487b7100000000000000000000000000000000000000000000000000000000600052602160045260246000fd5b60038110610c0557610c04610bc5565b5b50565b6000819050610c1682610bf4565b919050565b6000610c2682610c08565b9050919050565b610c3681610c1b565b82525050565b6000602082019050610c516000830184610c2d565b92915050565b610c6081610b47565b82525050565b6000602082019050610c7b6000830184610c57565b92915050565b600082825260208201905092915050565b7f43616d706169676e20646f6573206e6f74206578697374000000000000000000600082015250565b6000610cc8601783610c81565b9150610cd382610c92565b602082019050919050565b60006020820190508181036000830152610cf781610cbb565b9050919050565b7f517565737420646f6573206e6f74206578697374000000000000000000000000600082015250565b6000610d34601483610c81565b9150610d3f82610cfe565b602082019050919050565b60006020820190508181036000830152610d6381610d27565b9050919050565b7f506c61796572206d757374206669727374206a6f696e20746865207175657374600082015250565b6000610da0602083610c81565b9150610dab82610d6a565b602082019050919050565b60006020820190508181036000830152610dcf81610d93565b9050919050565b7f4f6e6c79207468652061646d696e2063616e2063726561746520717565737473600082015250565b6000610e0c602083610c81565b9150610e1782610dd6565b602082019050919050565b60006020820190508181036000830152610e3b81610dff565b9050919050565b600082905092915050565b7f4e487b7100000000000000000000000000000000000000000000000000000000600052604160045260246000fd5b7f4e487b7100000000000000000000000000000000000000000000000000000000600052602260045260246000fd5b60006002820490506001821680610ec357607f821691505b602082108103610ed657610ed5610e7c565b5b50919050565b60008190508160005260206000209050919050565b60006020601f8301049050919050565b600082821b905092915050565b600060088302610f3e7fffffffffffffffffffffffffffffffffffffffffffffffffffffffffffffffff82610f01565b610f488683610f01565b95508019841693508086168417925050509392505050565b6000819050919050565b6000610f85610f80610f7b846108e4565b610f60565b6108e4565b9050919050565b6000819050919050565b610f9f83610f6a565b610fb3610fab82610f8c565b848454610f0e565b825550505050565b600090565b610fc8610fbb565b610fd3818484610f96565b505050565b5b81811015610ff757610fec600082610fc0565b600181019050610fd9565b5050565b601f82111561103c5761100d81610edc565b61101684610ef1565b81016020851015611025578190505b61103961103185610ef1565b830182610fd8565b50505b505050565b600082821c905092915050565b600061105f60001984600802611041565b1980831691505092915050565b6000611078838361104e565b9150826002028217905092915050565b6110928383610e42565b67ffffffffffffffff8111156110ab576110aa610e4d565b5b6110b58254610eab565b6110c0828285610ffb565b6000601f8311600181146110ef57600084156110dd578287013590505b6110e7858261106c565b86555061114f565b601f1984166110fd86610edc565b60005b8281101561112557848901358255600182019150602085019450602081019050611100565b86831015611142578489013561113e601f89168261104e565b8355505b6001600288020188555050505b50505050505050565b7f4e487b7100000000000000000000000000000000000000000000000000000000600052601160045260246000fd5b6000611192826108e4565b91507fffffffffffffffffffffffffffffffffffffffffffffffffffffffffffffffff82036111c4576111c3611158565b5b600182019050919050565b7f506c617965722068617320616c7265616479206a6f696e65642f7375626d697460008201527f7465642074686973207175657374000000000000000000000000000000000000602082015250565b600061122b602e83610c81565b9150611236826111cf565b604082019050919050565b6000602082019050818103600083015261125a8161121e565b9050919050565b7f5175657374206973206e6f742063757272656e746c7920616374697665000000600082015250565b6000611297601d83610c81565b91506112a282611261565b602082019050919050565b600060208201905081810360008301526112c68161128a565b905091905056fea2646970667358221220b173d359a99762dbe6c6bda64157e7282bb38b74d933c5a3aad8ba732e703bf964736f6c63430008120033",
					"opcodes": "PUSH1 0x80 PUSH1 0x40 MSTORE CALLVALUE DUP1 ISZERO PUSH2 0x10 JUMPI PUSH1 0x0 DUP1 REVERT JUMPDEST POP CALLER PUSH1 0x0 DUP1 PUSH2 0x100 EXP DUP2 SLOAD DUP2 PUSH20 0xFFFFFFFFFFFFFFFFFFFFFFFFFFFFFFFFFFFFFFFF MUL NOT AND SWAP1 DUP4 PUSH20 0xFFFFFFFFFFFFFFFFFFFFFFFFFFFFFFFFFFFFFFFF AND MUL OR SWAP1 SSTORE POP PUSH2 0x1303 DUP1 PUSH2 0x60 PUSH1 0x0 CODECOPY PUSH1 0x0 RETURN INVALID PUSH1 0x80 PUSH1 0x40 MSTORE CALLVALUE DUP1 ISZERO PUSH2 0x10 JUMPI PUSH1 0x0 DUP1 REVERT JUMPDEST POP PUSH1 0x4 CALLDATASIZE LT PUSH2 0x7D JUMPI PUSH1 0x0 CALLDATALOAD PUSH1 0xE0 SHR DUP1 PUSH4 0x8C58689B GT PUSH2 0x5B JUMPI DUP1 PUSH4 0x8C58689B EQ PUSH2 0xED JUMPI DUP1 PUSH4 0x99F7358C EQ PUSH2 0x109 JUMPI DUP1 PUSH4 0xD5144817 EQ PUSH2 0x139 JUMPI DUP1 PUSH4 0xF851A440 EQ PUSH2 0x155 JUMPI PUSH2 0x7D JUMP JUMPDEST DUP1 PUSH4 0x17BBAEC EQ PUSH2 0x82 JUMPI DUP1 PUSH4 0x141961BC EQ PUSH2 0x9E JUMPI DUP1 PUSH4 0x7903A756 EQ PUSH2 0xCF JUMPI JUMPDEST PUSH1 0x0 DUP1 REVERT JUMPDEST PUSH2 0x9C PUSH1 0x4 DUP1 CALLDATASIZE SUB DUP2 ADD SWAP1 PUSH2 0x97 SWAP2 SWAP1 PUSH2 0x91A JUMP JUMPDEST PUSH2 0x173 JUMP JUMPDEST STOP JUMPDEST PUSH2 0xB8 PUSH1 0x4 DUP1 CALLDATASIZE SUB DUP2 ADD SWAP1 PUSH2 0xB3 SWAP2 SWAP1 PUSH2 0x95A JUMP JUMPDEST PUSH2 0x390 JUMP JUMPDEST PUSH1 0x40 MLOAD PUSH2 0xC6 SWAP3 SWAP2 SWAP1 PUSH2 0x996 JUMP JUMPDEST PUSH1 0x40 MLOAD DUP1 SWAP2 SUB SWAP1 RETURN JUMPDEST PUSH2 0xD7 PUSH2 0x3B4 JUMP JUMPDEST PUSH1 0x40 MLOAD PUSH2 0xE4 SWAP2 SWAP1 PUSH2 0x9BF JUMP JUMPDEST PUSH1 0x40 MLOAD DUP1 SWAP2 SUB SWAP1 RETURN JUMPDEST PUSH2 0x107 PUSH1 0x4 DUP1 CALLDATASIZE SUB DUP2 ADD SWAP1 PUSH2 0x102 SWAP2 SWAP1 PUSH2 0xA78 JUMP JUMPDEST PUSH2 0x3BA JUMP JUMPDEST STOP JUMPDEST PUSH2 0x123 PUSH1 0x4 DUP1 CALLDATASIZE SUB DUP2 ADD SWAP1 PUSH2 0x11E SWAP2 SWAP1 PUSH2 0xB85 JUMP JUMPDEST PUSH2 0x5C7 JUMP JUMPDEST PUSH1 0x40 MLOAD PUSH2 0x130 SWAP2 SWAP1 PUSH2 0xC3C JUMP JUMPDEST PUSH1 0x40 MLOAD DUP1 SWAP2 SUB SWAP1 RETURN JUMPDEST PUSH2 0x153 PUSH1 0x4 DUP1 CALLDATASIZE SUB DUP2 ADD SWAP1 PUSH2 0x14E SWAP2 SWAP1 PUSH2 0x91A JUMP JUMPDEST PUSH2 0x5F6 JUMP JUMPDEST STOP JUMPDEST PUSH2 0x15D PUSH2 0x8B6 JUMP JUMPDEST PUSH1 0x40 MLOAD PUSH2 0x16A SWAP2 SWAP1 PUSH2 0xC66 JUMP JUMPDEST PUSH1 0x40 MLOAD DUP1 SWAP2 SUB SWAP1 RETURN JUMPDEST DUP2 PUSH1 0x0 PUSH1 0x1 PUSH1 0x0 DUP4 DUP2 MSTORE PUSH1 0x20 ADD SWAP1 DUP2 MSTORE PUSH1 0x20 ADD PUSH1 0x0 KECCAK256 PUSH1 0x2 ADD SLOAD GT PUSH2 0x1CD JUMPI PUSH1 0x40 MLOAD PUSH32 0x8C379A000000000000000000000000000000000000000000000000000000000 DUP2 MSTORE PUSH1 0x4 ADD PUSH2 0x1C4 SWAP1 PUSH2 0xCDE JUMP JUMPDEST PUSH1 0x40 MLOAD DUP1 SWAP2 SUB SWAP1 REVERT JUMPDEST DUP3 DUP3 PUSH1 0x0 PUSH1 0x1 PUSH1 0x0 DUP5 DUP2 MSTORE PUSH1 0x20 ADD SWAP1 DUP2 MSTORE PUSH1 0x20 ADD PUSH1 0x0 KECCAK256 PUSH1 0x1 ADD PUSH1 0x0 DUP4 DUP2 MSTORE PUSH1 0x20 ADD SWAP1 DUP2 MSTORE PUSH1 0x20 ADD PUSH1 0x0 KECCAK256 PUSH1 0x3 ADD PUSH1 0x0 SWAP1 SLOAD SWAP1 PUSH2 0x100 EXP SWAP1 DIV PUSH1 0xFF AND PUSH1 0xFF AND SUB PUSH2 0x24C JUMPI PUSH1 0x40 MLOAD PUSH32 0x8C379A000000000000000000000000000000000000000000000000000000000 DUP2 MSTORE PUSH1 0x4 ADD PUSH2 0x243 SWAP1 PUSH2 0xD4A JUMP JUMPDEST PUSH1 0x40 MLOAD DUP1 SWAP2 SUB SWAP1 REVERT JUMPDEST PUSH1 0x1 PUSH1 0x2 DUP2 GT ISZERO PUSH2 0x260 JUMPI PUSH2 0x25F PUSH2 0xBC5 JUMP JUMPDEST JUMPDEST PUSH1 0x3 PUSH1 0x0 CALLER PUSH20 0xFFFFFFFFFFFFFFFFFFFFFFFFFFFFFFFFFFFFFFFF AND PUSH20 0xFFFFFFFFFFFFFFFFFFFFFFFFFFFFFFFFFFFFFFFF AND DUP2 MSTORE PUSH1 0x20 ADD SWAP1 DUP2 MSTORE PUSH1 0x20 ADD PUSH1 0x0 KECCAK256 PUSH1 0x0 DUP7 DUP2 MSTORE PUSH1 0x20 ADD SWAP1 DUP2 MSTORE PUSH1 0x20 ADD PUSH1 0x0 KECCAK256 PUSH1 0x0 SWAP1 SLOAD SWAP1 PUSH2 0x100 EXP SWAP1 DIV PUSH1 0xFF AND PUSH1 0x2 DUP2 GT ISZERO PUSH2 0x2D0 JUMPI PUSH2 0x2CF PUSH2 0xBC5 JUMP JUMPDEST JUMPDEST EQ PUSH2 0x310 JUMPI PUSH1 0x40 MLOAD PUSH32 0x8C379A000000000000000000000000000000000000000000000000000000000 DUP2 MSTORE PUSH1 0x4 ADD PUSH2 0x307 SWAP1 PUSH2 0xDB6 JUMP JUMPDEST PUSH1 0x40 MLOAD DUP1 SWAP2 SUB SWAP1 REVERT JUMPDEST PUSH1 0x2 PUSH1 0x3 PUSH1 0x0 CALLER PUSH20 0xFFFFFFFFFFFFFFFFFFFFFFFFFFFFFFFFFFFFFFFF AND PUSH20 0xFFFFFFFFFFFFFFFFFFFFFFFFFFFFFFFFFFFFFFFF AND DUP2 MSTORE PUSH1 0x20 ADD SWAP1 DUP2 MSTORE PUSH1 0x20 ADD PUSH1 0x0 KECCAK256 PUSH1 0x0 DUP7 DUP2 MSTORE PUSH1 0x20 ADD SWAP1 DUP2 MSTORE PUSH1 0x20 ADD PUSH1 0x0 KECCAK256 PUSH1 0x0 PUSH2 0x100 EXP DUP2 SLOAD DUP2 PUSH1 0xFF MUL NOT AND SWAP1 DUP4 PUSH1 0x2 DUP2 GT ISZERO PUSH2 0x384 JUMPI PUSH2 0x383 PUSH2 0xBC5 JUMP JUMPDEST JUMPDEST MUL OR SWAP1 SSTORE POP POP POP POP POP POP JUMP JUMPDEST PUSH1 0x1 PUSH1 0x20 MSTORE DUP1 PUSH1 0x0 MSTORE PUSH1 0x40 PUSH1 0x0 KECCAK256 PUSH1 0x0 SWAP2 POP SWAP1 POP DUP1 PUSH1 0x0 ADD SLOAD SWAP1 DUP1 PUSH1 0x2 ADD SLOAD SWAP1 POP DUP3 JUMP JUMPDEST PUSH1 0x2 SLOAD DUP2 JUMP JUMPDEST DUP7 PUSH1 0x0 PUSH1 0x1 PUSH1 0x0 DUP4 DUP2 MSTORE PUSH1 0x20 ADD SWAP1 DUP2 MSTORE PUSH1 0x20 ADD PUSH1 0x0 KECCAK256 PUSH1 0x2 ADD SLOAD GT PUSH2 0x414 JUMPI PUSH1 0x40 MLOAD PUSH32 0x8C379A000000000000000000000000000000000000000000000000000000000 DUP2 MSTORE PUSH1 0x4 ADD PUSH2 0x40B SWAP1 PUSH2 0xCDE JUMP JUMPDEST PUSH1 0x40 MLOAD DUP1 SWAP2 SUB SWAP1 REVERT JUMPDEST PUSH1 0x0 DUP1 SLOAD SWAP1 PUSH2 0x100 EXP SWAP1 DIV PUSH20 0xFFFFFFFFFFFFFFFFFFFFFFFFFFFFFFFFFFFFFFFF AND PUSH20 0xFFFFFFFFFFFFFFFFFFFFFFFFFFFFFFFFFFFFFFFF AND CALLER PUSH20 0xFFFFFFFFFFFFFFFFFFFFFFFFFFFFFFFFFFFFFFFF AND EQ PUSH2 0x4A2 JUMPI PUSH1 0x40 MLOAD PUSH32 0x8C379A000000000000000000000000000000000000000000000000000000000 DUP2 MSTORE PUSH1 0x4 ADD PUSH2 0x499 SWAP1 PUSH2 0xE22 JUMP JUMPDEST PUSH1 0x40 MLOAD DUP1 SWAP2 SUB SWAP1 REVERT JUMPDEST PUSH1 0x0 PUSH1 0x1 PUSH1 0x0 DUP11 DUP2 MSTORE PUSH1 0x20 ADD SWAP1 DUP2 MSTORE PUSH1 0x20 ADD PUSH1 0x0 KECCAK256 SWAP1 POP DUP1 PUSH1 0x2 ADD SLOAD DUP2 PUSH1 0x1 ADD PUSH1 0x0 DUP4 PUSH1 0x2 ADD SLOAD DUP2 MSTORE PUSH1 0x20 ADD SWAP1 DUP2 MSTORE PUSH1 0x20 ADD PUSH1 0x0 KECCAK256 PUSH1 0x0 ADD DUP2 SWAP1 SSTORE POP DUP8 DUP8 DUP3 PUSH1 0x1 ADD PUSH1 0x0 DUP5 PUSH1 0x2 ADD SLOAD DUP2 MSTORE PUSH1 0x20 ADD SWAP1 DUP2 MSTORE PUSH1 0x20 ADD PUSH1 0x0 KECCAK256 PUSH1 0x2 ADD SWAP2 DUP3 PUSH2 0x509 SWAP3 SWAP2 SWAP1 PUSH2 0x1088 JUMP JUMPDEST POP DUP6 DUP2 PUSH1 0x1 ADD PUSH1 0x0 DUP4 PUSH1 0x2 ADD SLOAD DUP2 MSTORE PUSH1 0x20 ADD SWAP1 DUP2 MSTORE PUSH1 0x20 ADD PUSH1 0x0 KECCAK256 PUSH1 0x3 ADD PUSH1 0x0 PUSH2 0x100 EXP DUP2 SLOAD DUP2 PUSH1 0xFF MUL NOT AND SWAP1 DUP4 PUSH1 0xFF AND MUL OR SWAP1 SSTORE POP DUP5 DUP2 PUSH1 0x1 ADD PUSH1 0x0 DUP4 PUSH1 0x2 ADD SLOAD DUP2 MSTORE PUSH1 0x20 ADD SWAP1 DUP2 MSTORE PUSH1 0x20 ADD PUSH1 0x0 KECCAK256 PUSH1 0x4 ADD DUP2 SWAP1 SSTORE POP DUP4 DUP2 PUSH1 0x1 ADD PUSH1 0x0 DUP4 PUSH1 0x2 ADD SLOAD DUP2 MSTORE PUSH1 0x20 ADD SWAP1 DUP2 MSTORE PUSH1 0x20 ADD PUSH1 0x0 KECCAK256 PUSH1 0x5 ADD DUP2 SWAP1 SSTORE POP DUP3 DUP2 PUSH1 0x1 ADD PUSH1 0x0 DUP4 PUSH1 0x2 ADD SLOAD DUP2 MSTORE PUSH1 0x20 ADD SWAP1 DUP2 MSTORE PUSH1 0x20 ADD PUSH1 0x0 KECCAK256 PUSH1 0x6 ADD DUP2 SWAP1 SSTORE POP DUP1 PUSH1 0x2 ADD PUSH1 0x0 DUP2 SLOAD DUP1 SWAP3 SWAP2 SWAP1 PUSH2 0x5B7 SWAP1 PUSH2 0x1187 JUMP JUMPDEST SWAP2 SWAP1 POP SSTORE POP POP POP POP POP POP POP POP POP POP JUMP JUMPDEST PUSH1 0x3 PUSH1 0x20 MSTORE DUP2 PUSH1 0x0 MSTORE PUSH1 0x40 PUSH1 0x0 KECCAK256 PUSH1 0x20 MSTORE DUP1 PUSH1 0x0 MSTORE PUSH1 0x40 PUSH1 0x0 KECCAK256 PUSH1 0x0 SWAP2 POP SWAP2 POP SWAP1 SLOAD SWAP1 PUSH2 0x100 EXP SWAP1 DIV PUSH1 0xFF AND DUP2 JUMP JUMPDEST DUP2 PUSH1 0x0 PUSH1 0x1 PUSH1 0x0 DUP4 DUP2 MSTORE PUSH1 0x20 ADD SWAP1 DUP2 MSTORE PUSH1 0x20 ADD PUSH1 0x0 KECCAK256 PUSH1 0x2 ADD SLOAD GT PUSH2 0x650 JUMPI PUSH1 0x40 MLOAD PUSH32 0x8C379A000000000000000000000000000000000000000000000000000000000 DUP2 MSTORE PUSH1 0x4 ADD PUSH2 0x647 SWAP1 PUSH2 0xCDE JUMP JUMPDEST PUSH1 0x40 MLOAD DUP1 SWAP2 SUB SWAP1 REVERT JUMPDEST DUP3 DUP3 PUSH1 0x0 PUSH1 0x1 PUSH1 0x0 DUP5 DUP2 MSTORE PUSH1 0x20 ADD SWAP1 DUP2 MSTORE PUSH1 0x20 ADD PUSH1 0x0 KECCAK256 PUSH1 0x1 ADD PUSH1 0x0 DUP4 DUP2 MSTORE PUSH1 0x20 ADD SWAP1 DUP2 MSTORE PUSH1 0x20 ADD PUSH1 0x0 KECCAK256 PUSH1 0x3 ADD PUSH1 0x0 SWAP1 SLOAD SWAP1 PUSH2 0x100 EXP SWAP1 DIV PUSH1 0xFF AND PUSH1 0xFF AND SUB PUSH2 0x6CF JUMPI PUSH1 0x40 MLOAD PUSH32 0x8C379A000000000000000000000000000000000000000000000000000000000 DUP2 MSTORE PUSH1 0x4 ADD PUSH2 0x6C6 SWAP1 PUSH2 0xD4A JUMP JUMPDEST PUSH1 0x40 MLOAD DUP1 SWAP2 SUB SWAP1 REVERT JUMPDEST PUSH1 0x0 PUSH1 0x2 DUP2 GT ISZERO PUSH2 0x6E3 JUMPI PUSH2 0x6E2 PUSH2 0xBC5 JUMP JUMPDEST JUMPDEST PUSH1 0x3 PUSH1 0x0 CALLER PUSH20 0xFFFFFFFFFFFFFFFFFFFFFFFFFFFFFFFFFFFFFFFF AND PUSH20 0xFFFFFFFFFFFFFFFFFFFFFFFFFFFFFFFFFFFFFFFF AND DUP2 MSTORE PUSH1 0x20 ADD SWAP1 DUP2 MSTORE PUSH1 0x20 ADD PUSH1 0x0 KECCAK256 PUSH1 0x0 DUP7 DUP2 MSTORE PUSH1 0x20 ADD SWAP1 DUP2 MSTORE PUSH1 0x20 ADD PUSH1 0x0 KECCAK256 PUSH1 0x0 SWAP1 SLOAD SWAP1 PUSH2 0x100 EXP SWAP1 DIV PUSH1 0xFF AND PUSH1 0x2 DUP2 GT ISZERO PUSH2 0x753 JUMPI PUSH2 0x752 PUSH2 0xBC5 JUMP JUMPDEST JUMPDEST EQ PUSH2 0x793 JUMPI PUSH1 0x40 MLOAD PUSH32 0x8C379A000000000000000000000000000000000000000000000000000000000 DUP2 MSTORE PUSH1 0x4 ADD PUSH2 0x78A SWAP1 PUSH2 0x1241 JUMP JUMPDEST PUSH1 0x40 MLOAD DUP1 SWAP2 SUB SWAP1 REVERT JUMPDEST PUSH1 0x0 PUSH1 0x1 PUSH1 0x0 DUP8 DUP2 MSTORE PUSH1 0x20 ADD SWAP1 DUP2 MSTORE PUSH1 0x20 ADD PUSH1 0x0 KECCAK256 SWAP1 POP PUSH1 0x0 DUP2 PUSH1 0x1 ADD PUSH1 0x0 DUP8 DUP2 MSTORE PUSH1 0x20 ADD SWAP1 DUP2 MSTORE PUSH1 0x20 ADD PUSH1 0x0 KECCAK256 SWAP1 POP DUP1 PUSH1 0x5 ADD SLOAD TIMESTAMP LT ISZERO DUP1 ISZERO PUSH2 0x7DB JUMPI POP DUP1 PUSH1 0x6 ADD SLOAD TIMESTAMP GT ISZERO JUMPDEST PUSH2 0x81A JUMPI PUSH1 0x40 MLOAD PUSH32 0x8C379A000000000000000000000000000000000000000000000000000000000 DUP2 MSTORE PUSH1 0x4 ADD PUSH2 0x811 SWAP1 PUSH2 0x12AD JUMP JUMPDEST PUSH1 0x40 MLOAD DUP1 SWAP2 SUB SWAP1 REVERT JUMPDEST PUSH1 0x1 PUSH1 0x3 PUSH1 0x0 CALLER PUSH20 0xFFFFFFFFFFFFFFFFFFFFFFFFFFFFFFFFFFFFFFFF AND PUSH20 0xFFFFFFFFFFFFFFFFFFFFFFFFFFFFFFFFFFFFFFFF AND DUP2 MSTORE PUSH1 0x20 ADD SWAP1 DUP2 MSTORE PUSH1 0x20 ADD PUSH1 0x0 KECCAK256 PUSH1 0x0 DUP9 DUP2 MSTORE PUSH1 0x20 ADD SWAP1 DUP2 MSTORE PUSH1 0x20 ADD PUSH1 0x0 KECCAK256 PUSH1 0x0 PUSH2 0x100 EXP DUP2 SLOAD DUP2 PUSH1 0xFF MUL NOT AND SWAP1 DUP4 PUSH1 0x2 DUP2 GT ISZERO PUSH2 0x88E JUMPI PUSH2 0x88D PUSH2 0xBC5 JUMP JUMPDEST JUMPDEST MUL OR SWAP1 SSTORE POP DUP1 PUSH1 0x1 ADD PUSH1 0x0 DUP2 SLOAD DUP1 SWAP3 SWAP2 SWAP1 PUSH2 0x8A8 SWAP1 PUSH2 0x1187 JUMP JUMPDEST SWAP2 SWAP1 POP SSTORE POP POP POP POP POP POP POP POP JUMP JUMPDEST PUSH1 0x0 DUP1 SLOAD SWAP1 PUSH2 0x100 EXP SWAP1 DIV PUSH20 0xFFFFFFFFFFFFFFFFFFFFFFFFFFFFFFFFFFFFFFFF AND DUP2 JUMP JUMPDEST PUSH1 0x0 DUP1 REVERT JUMPDEST PUSH1 0x0 DUP1 REVERT JUMPDEST PUSH1 0x0 DUP2 SWAP1 POP SWAP2 SWAP1 POP JUMP JUMPDEST PUSH2 0x8F7 DUP2 PUSH2 0x8E4 JUMP JUMPDEST DUP2 EQ PUSH2 0x902 JUMPI PUSH1 0x0 DUP1 REVERT JUMPDEST POP JUMP JUMPDEST PUSH1 0x0 DUP2 CALLDATALOAD SWAP1 POP PUSH2 0x914 DUP2 PUSH2 0x8EE JUMP JUMPDEST SWAP3 SWAP2 POP POP JUMP JUMPDEST PUSH1 0x0 DUP1 PUSH1 0x40 DUP4 DUP6 SUB SLT ISZERO PUSH2 0x931 JUMPI PUSH2 0x930 PUSH2 0x8DA JUMP JUMPDEST JUMPDEST PUSH1 0x0 PUSH2 0x93F DUP6 DUP3 DUP7 ADD PUSH2 0x905 JUMP JUMPDEST SWAP3 POP POP PUSH1 0x20 PUSH2 0x950 DUP6 DUP3 DUP7 ADD PUSH2 0x905 JUMP JUMPDEST SWAP2 POP POP SWAP3 POP SWAP3 SWAP1 POP JUMP JUMPDEST PUSH1 0x0 PUSH1 0x20 DUP3 DUP5 SUB SLT ISZERO PUSH2 0x970 JUMPI PUSH2 0x96F PUSH2 0x8DA JUMP JUMPDEST JUMPDEST PUSH1 0x0 PUSH2 0x97E DUP5 DUP3 DUP6 ADD PUSH2 0x905 JUMP JUMPDEST SWAP2 POP POP SWAP3 SWAP2 POP POP JUMP JUMPDEST PUSH2 0x990 DUP2 PUSH2 0x8E4 JUMP JUMPDEST DUP3 MSTORE POP POP JUMP JUMPDEST PUSH1 0x0 PUSH1 0x40 DUP3 ADD SWAP1 POP PUSH2 0x9AB PUSH1 0x0 DUP4 ADD DUP6 PUSH2 0x987 JUMP JUMPDEST PUSH2 0x9B8 PUSH1 0x20 DUP4 ADD DUP5 PUSH2 0x987 JUMP JUMPDEST SWAP4 SWAP3 POP POP POP JUMP JUMPDEST PUSH1 0x0 PUSH1 0x20 DUP3 ADD SWAP1 POP PUSH2 0x9D4 PUSH1 0x0 DUP4 ADD DUP5 PUSH2 0x987 JUMP JUMPDEST SWAP3 SWAP2 POP POP JUMP JUMPDEST PUSH1 0x0 DUP1 REVERT JUMPDEST PUSH1 0x0 DUP1 REVERT JUMPDEST PUSH1 0x0 DUP1 REVERT JUMPDEST PUSH1 0x0 DUP1 DUP4 PUSH1 0x1F DUP5 ADD SLT PUSH2 0x9FF JUMPI PUSH2 0x9FE PUSH2 0x9DA JUMP JUMPDEST JUMPDEST DUP3 CALLDATALOAD SWAP1 POP PUSH8 0xFFFFFFFFFFFFFFFF DUP2 GT ISZERO PUSH2 0xA1C JUMPI PUSH2 0xA1B PUSH2 0x9DF JUMP JUMPDEST JUMPDEST PUSH1 0x20 DUP4 ADD SWAP2 POP DUP4 PUSH1 0x1 DUP3 MUL DUP4 ADD GT ISZERO PUSH2 0xA38 JUMPI PUSH2 0xA37 PUSH2 0x9E4 JUMP JUMPDEST JUMPDEST SWAP3 POP SWAP3 SWAP1 POP JUMP JUMPDEST PUSH1 0x0 PUSH1 0xFF DUP3 AND SWAP1 POP SWAP2 SWAP1 POP JUMP JUMPDEST PUSH2 0xA55 DUP2 PUSH2 0xA3F JUMP JUMPDEST DUP2 EQ PUSH2 0xA60 JUMPI PUSH1 0x0 DUP1 REVERT JUMPDEST POP JUMP JUMPDEST PUSH1 0x0 DUP2 CALLDATALOAD SWAP1 POP PUSH2 0xA72 DUP2 PUSH2 0xA4C JUMP JUMPDEST SWAP3 SWAP2 POP POP JUMP JUMPDEST PUSH1 0x0 DUP1 PUSH1 0x0 DUP1 PUSH1 0x0 DUP1 PUSH1 0x0 PUSH1 0xC0 DUP9 DUP11 SUB SLT ISZERO PUSH2 0xA97 JUMPI PUSH2 0xA96 PUSH2 0x8DA JUMP JUMPDEST JUMPDEST PUSH1 0x0 PUSH2 0xAA5 DUP11 DUP3 DUP12 ADD PUSH2 0x905 JUMP JUMPDEST SWAP8 POP POP PUSH1 0x20 DUP9 ADD CALLDATALOAD PUSH8 0xFFFFFFFFFFFFFFFF DUP2 GT ISZERO PUSH2 0xAC6 JUMPI PUSH2 0xAC5 PUSH2 0x8DF JUMP JUMPDEST JUMPDEST PUSH2 0xAD2 DUP11 DUP3 DUP12 ADD PUSH2 0x9E9 JUMP JUMPDEST SWAP7 POP SWAP7 POP POP PUSH1 0x40 PUSH2 0xAE5 DUP11 DUP3 DUP12 ADD PUSH2 0xA63 JUMP JUMPDEST SWAP5 POP POP PUSH1 0x60 PUSH2 0xAF6 DUP11 DUP3 DUP12 ADD PUSH2 0x905 JUMP JUMPDEST SWAP4 POP POP PUSH1 0x80 PUSH2 0xB07 DUP11 DUP3 DUP12 ADD PUSH2 0x905 JUMP JUMPDEST SWAP3 POP POP PUSH1 0xA0 PUSH2 0xB18 DUP11 DUP3 DUP12 ADD PUSH2 0x905 JUMP JUMPDEST SWAP2 POP POP SWAP3 SWAP6 SWAP9 SWAP2 SWAP5 SWAP8 POP SWAP3 SWAP6 POP JUMP JUMPDEST PUSH1 0x0 PUSH20 0xFFFFFFFFFFFFFFFFFFFFFFFFFFFFFFFFFFFFFFFF DUP3 AND SWAP1 POP SWAP2 SWAP1 POP JUMP JUMPDEST PUSH1 0x0 PUSH2 0xB52 DUP3 PUSH2 0xB27 JUMP JUMPDEST SWAP1 POP SWAP2 SWAP1 POP JUMP JUMPDEST PUSH2 0xB62 DUP2 PUSH2 0xB47 JUMP JUMPDEST DUP2 EQ PUSH2 0xB6D JUMPI PUSH1 0x0 DUP1 REVERT JUMPDEST POP JUMP JUMPDEST PUSH1 0x0 DUP2 CALLDATALOAD SWAP1 POP PUSH2 0xB7F DUP2 PUSH2 0xB59 JUMP JUMPDEST SWAP3 SWAP2 POP POP JUMP JUMPDEST PUSH1 0x0 DUP1 PUSH1 0x40 DUP4 DUP6 SUB SLT ISZERO PUSH2 0xB9C JUMPI PUSH2 0xB9B PUSH2 0x8DA JUMP JUMPDEST JUMPDEST PUSH1 0x0 PUSH2 0xBAA DUP6 DUP3 DUP7 ADD PUSH2 0xB70 JUMP JUMPDEST SWAP3 POP POP PUSH1 0x20 PUSH2 0xBBB DUP6 DUP3 DUP7 ADD PUSH2 0x905 JUMP JUMPDEST SWAP2 POP POP SWAP3 POP SWAP3 SWAP1 POP JUMP JUMPDEST PUSH32 0x4E487B7100000000000000000000000000000000000000000000000000000000 PUSH1 0x0 MSTORE PUSH1 0x21 PUSH1 0x4 MSTORE PUSH1 0x24 PUSH1 0x0 REVERT JUMPDEST PUSH1 0x3 DUP2 LT PUSH2 0xC05 JUMPI PUSH2 0xC04 PUSH2 0xBC5 JUMP JUMPDEST JUMPDEST POP JUMP JUMPDEST PUSH1 0x0 DUP2 SWAP1 POP PUSH2 0xC16 DUP3 PUSH2 0xBF4 JUMP JUMPDEST SWAP2 SWAP1 POP JUMP JUMPDEST PUSH1 0x0 PUSH2 0xC26 DUP3 PUSH2 0xC08 JUMP JUMPDEST SWAP1 POP SWAP2 SWAP1 POP JUMP JUMPDEST PUSH2 0xC36 DUP2 PUSH2 0xC1B JUMP JUMPDEST DUP3 MSTORE POP POP JUMP JUMPDEST PUSH1 0x0 PUSH1 0x20 DUP3 ADD SWAP1 POP PUSH2 0xC51 PUSH1 0x0 DUP4 ADD DUP5 PUSH2 0xC2D JUMP JUMPDEST SWAP3 SWAP2 POP POP JUMP JUMPDEST PUSH2 0xC60 DUP2 PUSH2 0xB47 JUMP JUMPDEST DUP3 MSTORE POP POP JUMP JUMPDEST PUSH1 0x0 PUSH1 0x20 DUP3 ADD SWAP1 POP PUSH2 0xC7B PUSH1 0x0 DUP4 ADD DUP5 PUSH2 0xC57 JUMP JUMPDEST SWAP3 SWAP2 POP POP JUMP JUMPDEST PUSH1 0x0 DUP3 DUP3 MSTORE PUSH1 0x20 DUP3 ADD SWAP1 POP SWAP3 SWAP2 POP POP JUMP JUMPDEST PUSH32 0x43616D706169676E20646F6573206E6F74206578697374000000000000000000 PUSH1 0x0 DUP3 ADD MSTORE POP JUMP JUMPDEST PUSH1 0x0 PUSH2 0xCC8 PUSH1 0x17 DUP4 PUSH2 0xC81 JUMP JUMPDEST SWAP2 POP PUSH2 0xCD3 DUP3 PUSH2 0xC92 JUMP JUMPDEST PUSH1 0x20 DUP3 ADD SWAP1 POP SWAP2 SWAP1 POP JUMP JUMPDEST PUSH1 0x0 PUSH1 0x20 DUP3 ADD SWAP1 POP DUP2 DUP2 SUB PUSH1 0x0 DUP4 ADD MSTORE PUSH2 0xCF7 DUP2 PUSH2 0xCBB JUMP JUMPDEST SWAP1 POP SWAP2 SWAP1 POP JUMP JUMPDEST PUSH32 0x517565737420646F6573206E6F74206578697374000000000000000000000000 PUSH1 0x0 DUP3 ADD MSTORE POP JUMP JUMPDEST PUSH1 0x0 PUSH2 0xD34 PUSH1 0x14 DUP4 PUSH2 0xC81 JUMP JUMPDEST SWAP2 POP PUSH2 0xD3F DUP3 PUSH2 0xCFE JUMP JUMPDEST PUSH1 0x20 DUP3 ADD SWAP1 POP SWAP2 SWAP1 POP JUMP JUMPDEST PUSH1 0x0 PUSH1 0x20 DUP3 ADD SWAP1 POP DUP2 DUP2 SUB PUSH1 0x0 DUP4 ADD MSTORE PUSH2 0xD63 DUP2 PUSH2 0xD27 JUMP JUMPDEST SWAP1 POP SWAP2 SWAP1 POP JUMP JUMPDEST PUSH32 0x506C61796572206D757374206669727374206A6F696E20746865207175657374 PUSH1 0x0 DUP3 ADD MSTORE POP JUMP JUMPDEST PUSH1 0x0 PUSH2 0xDA0 PUSH1 0x20 DUP4 PUSH2 0xC81 JUMP JUMPDEST SWAP2 POP PUSH2 0xDAB DUP3 PUSH2 0xD6A JUMP JUMPDEST PUSH1 0x20 DUP3 ADD SWAP1 POP SWAP2 SWAP1 POP JUMP JUMPDEST PUSH1 0x0 PUSH1 0x20 DUP3 ADD SWAP1 POP DUP2 DUP2 SUB PUSH1 0x0 DUP4 ADD MSTORE PUSH2 0xDCF DUP2 PUSH2 0xD93 JUMP JUMPDEST SWAP1 POP SWAP2 SWAP1 POP JUMP JUMPDEST PUSH32 0x4F6E6C79207468652061646D696E2063616E2063726561746520717565737473 PUSH1 0x0 DUP3 ADD MSTORE POP JUMP JUMPDEST PUSH1 0x0 PUSH2 0xE0C PUSH1 0x20 DUP4 PUSH2 0xC81 JUMP JUMPDEST SWAP2 POP PUSH2 0xE17 DUP3 PUSH2 0xDD6 JUMP JUMPDEST PUSH1 0x20 DUP3 ADD SWAP1 POP SWAP2 SWAP1 POP JUMP JUMPDEST PUSH1 0x0 PUSH1 0x20 DUP3 ADD SWAP1 POP DUP2 DUP2 SUB PUSH1 0x0 DUP4 ADD MSTORE PUSH2 0xE3B DUP2 PUSH2 0xDFF JUMP JUMPDEST SWAP1 POP SWAP2 SWAP1 POP JUMP JUMPDEST PUSH1 0x0 DUP3 SWAP1 POP SWAP3 SWAP2 POP POP JUMP JUMPDEST PUSH32 0x4E487B7100000000000000000000000000000000000000000000000000000000 PUSH1 0x0 MSTORE PUSH1 0x41 PUSH1 0x4 MSTORE PUSH1 0x24 PUSH1 0x0 REVERT JUMPDEST PUSH32 0x4E487B7100000000000000000000000000000000000000000000000000000000 PUSH1 0x0 MSTORE PUSH1 0x22 PUSH1 0x4 MSTORE PUSH1 0x24 PUSH1 0x0 REVERT JUMPDEST PUSH1 0x0 PUSH1 0x2 DUP3 DIV SWAP1 POP PUSH1 0x1 DUP3 AND DUP1 PUSH2 0xEC3 JUMPI PUSH1 0x7F DUP3 AND SWAP2 POP JUMPDEST PUSH1 0x20 DUP3 LT DUP2 SUB PUSH2 0xED6 JUMPI PUSH2 0xED5 PUSH2 0xE7C JUMP JUMPDEST JUMPDEST POP SWAP2 SWAP1 POP JUMP JUMPDEST PUSH1 0x0 DUP2 SWAP1 POP DUP2 PUSH1 0x0 MSTORE PUSH1 0x20 PUSH1 0x0 KECCAK256 SWAP1 POP SWAP2 SWAP1 POP JUMP JUMPDEST PUSH1 0x0 PUSH1 0x20 PUSH1 0x1F DUP4 ADD DIV SWAP1 POP SWAP2 SWAP1 POP JUMP JUMPDEST PUSH1 0x0 DUP3 DUP3 SHL SWAP1 POP SWAP3 SWAP2 POP POP JUMP JUMPDEST PUSH1 0x0 PUSH1 0x8 DUP4 MUL PUSH2 0xF3E PUSH32 0xFFFFFFFFFFFFFFFFFFFFFFFFFFFFFFFFFFFFFFFFFFFFFFFFFFFFFFFFFFFFFFFF DUP3 PUSH2 0xF01 JUMP JUMPDEST PUSH2 0xF48 DUP7 DUP4 PUSH2 0xF01 JUMP JUMPDEST SWAP6 POP DUP1 NOT DUP5 AND SWAP4 POP DUP1 DUP7 AND DUP5 OR SWAP3 POP POP POP SWAP4 SWAP3 POP POP POP JUMP JUMPDEST PUSH1 0x0 DUP2 SWAP1 POP SWAP2 SWAP1 POP JUMP JUMPDEST PUSH1 0x0 PUSH2 0xF85 PUSH2 0xF80 PUSH2 0xF7B DUP5 PUSH2 0x8E4 JUMP JUMPDEST PUSH2 0xF60 JUMP JUMPDEST PUSH2 0x8E4 JUMP JUMPDEST SWAP1 POP SWAP2 SWAP1 POP JUMP JUMPDEST PUSH1 0x0 DUP2 SWAP1 POP SWAP2 SWAP1 POP JUMP JUMPDEST PUSH2 0xF9F DUP4 PUSH2 0xF6A JUMP JUMPDEST PUSH2 0xFB3 PUSH2 0xFAB DUP3 PUSH2 0xF8C JUMP JUMPDEST DUP5 DUP5 SLOAD PUSH2 0xF0E JUMP JUMPDEST DUP3 SSTORE POP POP POP POP JUMP JUMPDEST PUSH1 0x0 SWAP1 JUMP JUMPDEST PUSH2 0xFC8 PUSH2 0xFBB JUMP JUMPDEST PUSH2 0xFD3 DUP2 DUP5 DUP5 PUSH2 0xF96 JUMP JUMPDEST POP POP POP JUMP JUMPDEST JUMPDEST DUP2 DUP2 LT ISZERO PUSH2 0xFF7 JUMPI PUSH2 0xFEC PUSH1 0x0 DUP3 PUSH2 0xFC0 JUMP JUMPDEST PUSH1 0x1 DUP2 ADD SWAP1 POP PUSH2 0xFD9 JUMP JUMPDEST POP POP JUMP JUMPDEST PUSH1 0x1F DUP3 GT ISZERO PUSH2 0x103C JUMPI PUSH2 0x100D DUP2 PUSH2 0xEDC JUMP JUMPDEST PUSH2 0x1016 DUP5 PUSH2 0xEF1 JUMP JUMPDEST DUP2 ADD PUSH1 0x20 DUP6 LT ISZERO PUSH2 0x1025 JUMPI DUP2 SWAP1 POP JUMPDEST PUSH2 0x1039 PUSH2 0x1031 DUP6 PUSH2 0xEF1 JUMP JUMPDEST DUP4 ADD DUP3 PUSH2 0xFD8 JUMP JUMPDEST POP POP JUMPDEST POP POP POP JUMP JUMPDEST PUSH1 0x0 DUP3 DUP3 SHR SWAP1 POP SWAP3 SWAP2 POP POP JUMP JUMPDEST PUSH1 0x0 PUSH2 0x105F PUSH1 0x0 NOT DUP5 PUSH1 0x8 MUL PUSH2 0x1041 JUMP JUMPDEST NOT DUP1 DUP4 AND SWAP2 POP POP SWAP3 SWAP2 POP POP JUMP JUMPDEST PUSH1 0x0 PUSH2 0x1078 DUP4 DUP4 PUSH2 0x104E JUMP JUMPDEST SWAP2 POP DUP3 PUSH1 0x2 MUL DUP3 OR SWAP1 POP SWAP3 SWAP2 POP POP JUMP JUMPDEST PUSH2 0x1092 DUP4 DUP4 PUSH2 0xE42 JUMP JUMPDEST PUSH8 0xFFFFFFFFFFFFFFFF DUP2 GT ISZERO PUSH2 0x10AB JUMPI PUSH2 0x10AA PUSH2 0xE4D JUMP JUMPDEST JUMPDEST PUSH2 0x10B5 DUP3 SLOAD PUSH2 0xEAB JUMP JUMPDEST PUSH2 0x10C0 DUP3 DUP3 DUP6 PUSH2 0xFFB JUMP JUMPDEST PUSH1 0x0 PUSH1 0x1F DUP4 GT PUSH1 0x1 DUP2 EQ PUSH2 0x10EF JUMPI PUSH1 0x0 DUP5 ISZERO PUSH2 0x10DD JUMPI DUP3 DUP8 ADD CALLDATALOAD SWAP1 POP JUMPDEST PUSH2 0x10E7 DUP6 DUP3 PUSH2 0x106C JUMP JUMPDEST DUP7 SSTORE POP PUSH2 0x114F JUMP JUMPDEST PUSH1 0x1F NOT DUP5 AND PUSH2 0x10FD DUP7 PUSH2 0xEDC JUMP JUMPDEST PUSH1 0x0 JUMPDEST DUP3 DUP2 LT ISZERO PUSH2 0x1125 JUMPI DUP5 DUP10 ADD CALLDATALOAD DUP3 SSTORE PUSH1 0x1 DUP3 ADD SWAP2 POP PUSH1 0x20 DUP6 ADD SWAP5 POP PUSH1 0x20 DUP2 ADD SWAP1 POP PUSH2 0x1100 JUMP JUMPDEST DUP7 DUP4 LT ISZERO PUSH2 0x1142 JUMPI DUP5 DUP10 ADD CALLDATALOAD PUSH2 0x113E PUSH1 0x1F DUP10 AND DUP3 PUSH2 0x104E JUMP JUMPDEST DUP4 SSTORE POP JUMPDEST PUSH1 0x1 PUSH1 0x2 DUP9 MUL ADD DUP9 SSTORE POP POP POP JUMPDEST POP POP POP POP POP POP POP JUMP JUMPDEST PUSH32 0x4E487B7100000000000000000000000000000000000000000000000000000000 PUSH1 0x0 MSTORE PUSH1 0x11 PUSH1 0x4 MSTORE PUSH1 0x24 PUSH1 0x0 REVERT JUMPDEST PUSH1 0x0 PUSH2 0x1192 DUP3 PUSH2 0x8E4 JUMP JUMPDEST SWAP2 POP PUSH32 0xFFFFFFFFFFFFFFFFFFFFFFFFFFFFFFFFFFFFFFFFFFFFFFFFFFFFFFFFFFFFFFFF DUP3 SUB PUSH2 0x11C4 JUMPI PUSH2 0x11C3 PUSH2 0x1158 JUMP JUMPDEST JUMPDEST PUSH1 0x1 DUP3 ADD SWAP1 POP SWAP2 SWAP1 POP JUMP JUMPDEST PUSH32 0x506C617965722068617320616C7265616479206A6F696E65642F7375626D6974 PUSH1 0x0 DUP3 ADD MSTORE PUSH32 0x7465642074686973207175657374000000000000000000000000000000000000 PUSH1 0x20 DUP3 ADD MSTORE POP JUMP JUMPDEST PUSH1 0x0 PUSH2 0x122B PUSH1 0x2E DUP4 PUSH2 0xC81 JUMP JUMPDEST SWAP2 POP PUSH2 0x1236 DUP3 PUSH2 0x11CF JUMP JUMPDEST PUSH1 0x40 DUP3 ADD SWAP1 POP SWAP2 SWAP1 POP JUMP JUMPDEST PUSH1 0x0 PUSH1 0x20 DUP3 ADD SWAP1 POP DUP2 DUP2 SUB PUSH1 0x0 DUP4 ADD MSTORE PUSH2 0x125A DUP2 PUSH2 0x121E JUMP JUMPDEST SWAP1 POP SWAP2 SWAP1 POP JUMP JUMPDEST PUSH32 0x5175657374206973206E6F742063757272656E746C7920616374697665000000 PUSH1 0x0 DUP3 ADD MSTORE POP JUMP JUMPDEST PUSH1 0x0 PUSH2 0x1297 PUSH1 0x1D DUP4 PUSH2 0xC81 JUMP JUMPDEST SWAP2 POP PUSH2 0x12A2 DUP3 PUSH2 0x1261 JUMP JUMPDEST PUSH1 0x20 DUP3 ADD SWAP1 POP SWAP2 SWAP1 POP JUMP JUMPDEST PUSH1 0x0 PUSH1 0x20 DUP3 ADD SWAP1 POP DUP2 DUP2 SUB PUSH1 0x0 DUP4 ADD MSTORE PUSH2 0x12C6 DUP2 PUSH2 0x128A JUMP JUMPDEST SWAP1 POP SWAP2 SWAP1 POP JUMP INVALID LOG2 PUSH5 0x6970667358 0x22 SLT KECCAK256 0xB1 PUSH20 0xD359A99762DBE6C6BDA64157E7282BB38B74D933 0xC5 LOG3 0xAA 0xD8 0xBA PUSH20 0x2E703BF964736F6C634300081200330000000000 "
				},
				"gasEstimates": {
					"creation": {
						"codeDepositCost": "973400",
						"executionCost": "25280",
						"totalCost": "998680"
					},
					"external": {
						"admin()": "2577",
						"campaigns(uint256)": "infinite",
						"createQuest(uint256,string,uint8,uint256,uint256,uint256)": "infinite",
						"joinQuest(uint256,uint256)": "infinite",
						"nextCampaignId()": "2474",
						"playerQuestStatuses(address,uint256)": "3198",
						"submitQuest(uint256,uint256)": "infinite"
					}
				},
				"methodIdentifiers": {
					"admin()": "f851a440",
					"campaigns(uint256)": "141961bc",
					"createQuest(uint256,string,uint8,uint256,uint256,uint256)": "8c58689b",
					"joinQuest(uint256,uint256)": "d5144817",
					"nextCampaignId()": "7903a756",
					"playerQuestStatuses(address,uint256)": "99f7358c",
					"submitQuest(uint256,uint256)": "017bbaec"
				}
			},
			"storageLayout": {
				"storage": [
					{
						"astId": 32,
						"contract": "Stackup.sol:StackUp",
						"label": "admin",
						"offset": 0,
						"slot": "0",
						"type": "t_address"
					},
					{
						"astId": 37,
						"contract": "Stackup.sol:StackUp",
						"label": "campaigns",
						"offset": 0,
						"slot": "1",
						"type": "t_mapping(t_uint256,t_struct(Campaign)30_storage)"
					},
					{
						"astId": 39,
						"contract": "Stackup.sol:StackUp",
						"label": "nextCampaignId",
						"offset": 0,
						"slot": "2",
						"type": "t_uint256"
					},
					{
						"astId": 46,
						"contract": "Stackup.sol:StackUp",
						"label": "playerQuestStatuses",
						"offset": 0,
						"slot": "3",
						"type": "t_mapping(t_address,t_mapping(t_uint256,t_enum(PlayerQuestStatus)5))"
					}
				],
				"types": {
					"t_address": {
						"encoding": "inplace",
						"label": "address",
						"numberOfBytes": "20"
					},
					"t_enum(PlayerQuestStatus)5": {
						"encoding": "inplace",
						"label": "enum StackUp.PlayerQuestStatus",
						"numberOfBytes": "1"
					},
					"t_mapping(t_address,t_mapping(t_uint256,t_enum(PlayerQuestStatus)5))": {
						"encoding": "mapping",
						"key": "t_address",
						"label": "mapping(address => mapping(uint256 => enum StackUp.PlayerQuestStatus))",
						"numberOfBytes": "32",
						"value": "t_mapping(t_uint256,t_enum(PlayerQuestStatus)5)"
					},
					"t_mapping(t_uint256,t_enum(PlayerQuestStatus)5)": {
						"encoding": "mapping",
						"key": "t_uint256",
						"label": "mapping(uint256 => enum StackUp.PlayerQuestStatus)",
						"numberOfBytes": "32",
						"value": "t_enum(PlayerQuestStatus)5"
					},
					"t_mapping(t_uint256,t_struct(Campaign)30_storage)": {
						"encoding": "mapping",
						"key": "t_uint256",
						"label": "mapping(uint256 => struct StackUp.Campaign)",
						"numberOfBytes": "32",
						"value": "t_struct(Campaign)30_storage"
					},
					"t_mapping(t_uint256,t_struct(Quest)20_storage)": {
						"encoding": "mapping",
						"key": "t_uint256",
						"label": "mapping(uint256 => struct StackUp.Quest)",
						"numberOfBytes": "32",
						"value": "t_struct(Quest)20_storage"
					},
					"t_string_storage": {
						"encoding": "bytes",
						"label": "string",
						"numberOfBytes": "32"
					},
					"t_struct(Campaign)30_storage": {
						"encoding": "inplace",
						"label": "struct StackUp.Campaign",
						"members": [
							{
								"astId": 22,
								"contract": "Stackup.sol:StackUp",
								"label": "campaignId",
								"offset": 0,
								"slot": "0",
								"type": "t_uint256"
							},
							{
								"astId": 27,
								"contract": "Stackup.sol:StackUp",
								"label": "quests",
								"offset": 0,
								"slot": "1",
								"type": "t_mapping(t_uint256,t_struct(Quest)20_storage)"
							},
							{
								"astId": 29,
								"contract": "Stackup.sol:StackUp",
								"label": "nextQuestId",
								"offset": 0,
								"slot": "2",
								"type": "t_uint256"
							}
						],
						"numberOfBytes": "96"
					},
					"t_struct(Quest)20_storage": {
						"encoding": "inplace",
						"label": "struct StackUp.Quest",
						"members": [
							{
								"astId": 7,
								"contract": "Stackup.sol:StackUp",
								"label": "questId",
								"offset": 0,
								"slot": "0",
								"type": "t_uint256"
							},
							{
								"astId": 9,
								"contract": "Stackup.sol:StackUp",
								"label": "numberOfPlayers",
								"offset": 0,
								"slot": "1",
								"type": "t_uint256"
							},
							{
								"astId": 11,
								"contract": "Stackup.sol:StackUp",
								"label": "title",
								"offset": 0,
								"slot": "2",
								"type": "t_string_storage"
							},
							{
								"astId": 13,
								"contract": "Stackup.sol:StackUp",
								"label": "reward",
								"offset": 0,
								"slot": "3",
								"type": "t_uint8"
							},
							{
								"astId": 15,
								"contract": "Stackup.sol:StackUp",
								"label": "numberOfRewards",
								"offset": 0,
								"slot": "4",
								"type": "t_uint256"
							},
							{
								"astId": 17,
								"contract": "Stackup.sol:StackUp",
								"label": "startTime",
								"offset": 0,
								"slot": "5",
								"type": "t_uint256"
							},
							{
								"astId": 19,
								"contract": "Stackup.sol:StackUp",
								"label": "endTime",
								"offset": 0,
								"slot": "6",
								"type": "t_uint256"
							}
						],
						"numberOfBytes": "224"
					},
					"t_uint256": {
						"encoding": "inplace",
						"label": "uint256",
						"numberOfBytes": "32"
					},
					"t_uint8": {
						"encoding": "inplace",
						"label": "uint8",
						"numberOfBytes": "1"
					}
				}
			},
			"userdoc": {
				"kind": "user",
				"methods": {},
				"version": 1
			}
		}
	}
}